:100000000018002025200000F1750000F91F0000F5
:10001000F91F0000F91F0000F91F00000000000098
:10002000000000000000000000000000A91A00000D
:10003000F91F000000000000551A0000F91F000021
:10004000591B0000A5390000591B0000591B000076
:10005000591B0000591B0000591B0000591B0000D0
:10006000591B0000591B0000A97A0000591B000011
:10007000591B0000591B0000591B0000591B0000B0
:10008000591B0000591B0000591B0000591B0000A0
:10009000153A0000591B0000591B0000591B0000B5
:1000A000591B0000591B0000591B0000591B000080
:1000B000591B0000591B0000591B0000591B000070
:1000C000591B0000591B0000591B0000591B000060
:1000D000591B0000591B0000591B0000591B000050
:1000E000591B0000591B0000591B0000591B000040
:1000F000591B0000591B0000591B0000591B000030
:1001000053B94AB9002908BF00281CBF4FF0FF317E
:100110004FF0FF3000F00CB8ADF1080C6DE904CEE3
:1001200000F008F8DDF804E0DDE9022304B07047D0
:10013000704700BF2DE9F04F07468C460846099EE0
:1001400015463C461946002B40F0C6808242B2FA62
:1001500082F746D94FB1C7F1200E24FA0EFE00FAFD
:1001600007F3BD404EEA030CBC404FEA15481FFAA6
:1001700085FEBCFBF8F9220C08FB19C309FB0EFA3B
:1001800042EA03439A4528D9EB1809F1FF3004D21B
:100190009A4502D9A9F102002B44A3EB0A03A4B2A9
:1001A000B3FBF8F208FB123302FB0EFE44EA0344F1
:1001B000A64514D92C1902F1FF3303D2A64501D963
:1001C000931E2C44A4EB0E0443EA00401EB1FC40F5
:1001D000002334607360BDE8F08F4846DDE71346C6
:1001E000F0E702B9FFDE87BB831A01214FEA154E03
:1001F000AAB2B3FBFEFC200C0EFB1C330CFB02F876
:1002000040EA0343984563D9EB180CF1FF3004D260
:10021000984502D9ACF102002B44A3EB0803A4B229
:10022000B3FBFEFC0EFB1C330CFB02F244EA03445E
:10023000A2424FD92C190CF1FF3304D2A24202D9A9
:10024000ACF102032C44A41ABEE7C7F1200C20FA3B
:100250000CF800FA07F324FA0CFCBD404CEA030248
:100260004FEA154EABB2B8FBFEFC110C0EFB1C8026
:100270000CFB03F941EA0040814504FA07F423D955
:1002800028180CF1FF3104D2814502D9ACF10201EA
:100290002844A0EB090092B2B0FBFEFC0EFB1C0050
:1002A0000CFB03F842EA004398450FD9EB180CF118
:1002B000FF3204D2984502D9ACF102022B44A3EBE1
:1002C000080342EA014191E76146E2E76246F6E748
:1002D0006046A2E76346B6E7834205D90EB1C6E998
:1002E00000700021084676E7B3FA83F181B98342B2
:1002F00001D3BA420AD8BC1A60EB030301209C4622
:10030000002E68D0C6E9004C002164E70846F7E7F4
:10031000C1F1200C8B4022FA0CF41C4302FA01F5C7
:1003200000FA01F327FA0CF220FA0CFB4FEA144909
:100330001343BBFBF9F81FFA84FE09FB18BB1A0C28
:1003400008FB0EFA42EA0B42924507FA01F73ED942
:10035000A21808F1FF3004D2924502D9A8F1020098
:100360002244A2EB0A029BB2B2FBF9F809FB182265
:1003700008FB0EFE43EA024296452AD9A21808F16C
:10038000FF3304D2964502D9A8F10203224443EA7E
:100390000040A0FB0593A2EB0E029A42CE4698467F
:1003A00002D306D14F4504D2B9EB050E63EB040826
:1003B000013886B1B7EB0E0362EB080707FA0CFCB5
:1003C000CB404CEA0303CF40C6E900379CE74046E8
:1003D000C7E74346DBE73146FDE6000010B503788A
:1003E000012B86B00AD0022B0BD0002B51D12A480A
:1003F000442106B0BDE8104007F0E1B82748442189
:10040000F7E7274C204603F0F5FE00283ED1254AA9
:10041000254813680133136063790493A379039328
:10042000E3790293237A0193637A0093A37A227883
:10043000442107F0C4F8A17901F00700431E032B03
:1004400094BF0023012311F0060F1DD0052894BF8F
:10045000002201220338032894BF002001205B03FF
:1004600043EAC03381F004011048C1F3800143EA3C
:10047000014381688C6843EA82324FF4F0312346AD
:1004800006B0BDE8104018470122E3E708484521BF
:10049000AFE706B010BD00BFE8810000FE8100009C
:1004A0000C0D002008030020138200005C7D00007A
:1004B000618200001FB5002002F004F940B9134822
:1004C000452107F07CF86FF00504204604B010BD0C
:1004D00000230193039369460123029300F026FB56
:1004E000041E05DA0A482246452107F068F8ECE7C1
:1004F000029B9B07FCD1039C1CB106482246452168
:10050000F3E70548442107F05AF8DEE7848200004B
:10051000A9820000C7820000EB82000030B54FF0D6
:10052000E7328BB04FF0C233CDE90123124A134DAD
:100530001068516803AB03C31C460FCD0FC42B6872
:1005400023600F4A0692012305A88DF815308DF817
:1005500026308DF81D3003F071FC58B901A803F066
:10056000CDFE38B902A803F0E5FE18B9082103A8AA
:1005700003F0FCFE0BB030BD01830000A07F000043
:10058000DD0300002DE9F04F4E4885B0492107F00A
:1005900016F8FFF78FFF0446002840F08F804A4886
:1005A00007F02DFB30B94948452105B0BDE8F04FB3
:1005B00007F005B8464E474DDFF81C91B6F80680A7
:1005C000376896F804A048F4003BBB6802937B6848
:1005D00003933B69019308F03003302B0AD129467D
:1005E00048464FF42E7206F0DCFF4FF42E71284679
:1005F00006F0D0FF08F00603042B0AD1294648462E
:100600004FF4307206F0CDFF4FF43071284606F0FB
:10061000C1FF039A0123126803FA0AF313420CD1B3
:100620004FF4357229464846039306F0BAFF4FF45B
:100630003571284606F0AEFF039B019A126818F048
:10064000010F14BF134322EA0303019A1360029BB4
:100650005A461B68514638469847034638B11F48EA
:100660002246452105B0BDE8F04F06F0A8BF013491
:10067000042C06F10806A1D1FFF750FF024630B165
:100680001748452105B0BDE8F04F06F098BF154862
:10069000492106F094FF144803F00CFD024610B106
:1006A00012484521EEE71248492106F088FF03F081
:1006B000DFFD024610B10F484521E3E705B0BDE874
:1006C000F08F00BF0A8300005C7D00002E830000D5
:1006D000C87F0000478300007883000090830000FB
:1006E000B8830000DF83000054010020FC83000079
:1006F000178400003D84000038B54468816004F030
:100700000304032C054602D02CB1002000E0006851
:1007100000236B6038BD05490548452206F041FFBE
:100720000248452106F036FFEFE700BF6284000073
:10073000788300000B6801330B60014B1B6818477E
:1007400000000020014B1860704700BF000000202F
:1007500007B50B46002102460191034801A900F0AC
:1007600069FA03B05DF804FB350700002DE9F74F87
:10077000B0F81CA01AF0080F044693461CD00129BB
:100780000CBF4AF0100A4AF0200AA0F81CA004F19D
:10079000140005F015F840B992499348B92206F0C3
:1007A00000FF9048B92106F0F5FE8BF31188BFF3E6
:1007B0006F8F03B0BDE8F08F8C4FDFF82C820AF00A
:1007C000070A022906D1204606F02AFE0028DED0BC
:1007D000012863D1D4F81890A38BB9F1000F19DA6E
:1007E0000026256823F00703C4E9006643F00103EF
:1007F000A383A38B03F007025245009203D0A268A3
:10080000002A40F0F58015B9002E00F02F814FF03E
:10081000000AEFE003F00702511F012920D8002150
:1008200023F00703062A25689BB2C4E900110AD108
:100830003DB1E28B29460968013292B20029FAD112
:10084000E28343F00203A383204606F0E9FD064657
:100850000028CED0A38B43F02003A3830026C8E753
:10086000042A0DD123F007039AB2A283204606F092
:10087000D7FD054680B142F02002A2830025EDE7B6
:1008800040F21B123946404606F08BFE40F21B1127
:10089000384606F07FFE00252E46AAE7032831D110
:1008A000BAF1000F0AD0394640464FF4AB7206F059
:1008B00078FE4FF4AB71384606F06CFE236853B9EE
:1008C0003946404640F2571206F06BFE40F257118F
:1008D000384606F05FFE23691E6856B93946404621
:1008E0004FF4AD7206F05DFE4FF4AD71384606F080
:1008F00051FEA38B23F0070343F00603A3830025D7
:10090000A94676E704282ED1BAF1020F0AD039465B
:10091000404640F25D1206F044FE40F25D1138465A
:1009200006F038FEE38B53B1394640464FF4AF72C0
:1009300006F037FE4FF4AF71384606F02BFE236900
:100940005E6856B93946404640F2611206F029FE0B
:1009500040F26111384606F01DFEA38B23F0070319
:1009600043F00403CAE705282ED1BAF1010F0AD0DB
:10097000394640464FF4B27206F013FE4FF4B2719E
:10098000384606F007FE236853B93946404640F220
:10099000651206F006FE40F26511384606F0FAFDD3
:1009A00023699E6856B9394640464FF4B47206F042
:1009B000F8FD4FF4B471384606F0ECFDA38B23F03C
:1009C000070343F0050399E740F26B1239464046AE
:1009D00006F0E7FD002540F26B11384606F0DAFD1F
:1009E0002E468DE7A78400007883000085840000F0
:1009F0004FF0010A43F00803A38304F114031846DF
:100A0000019304F0DDFE40B931494046B92206F0B9
:100A1000C8FD2F48B92106F0BDFD8BF31188BFF347
:100A20006F8FBAF1000F30D1002D40D116B1294996
:100A30002046B0474FF02003EFF3118B83F3128869
:100A4000BFF36F8F019804F0ADFE40B920494046D6
:100A50008E2206F0A6FD1E488E2106F09BFD019811
:100A600004F0BEFEA38B23F00803A383A38BDA0656
:100A700025D523F01003A3830121B4F81CA00AF0AC
:100A8000070A00297FF49DAE81E6A1680029CBD03A
:100A9000D1F800A0D1F804B0009A4B462046D847C0
:100AA000BAF1000FC0D05146DAF800A0F2E72946AB
:100AB000009A2D684B46204606F0CEFCB4E713F0B2
:100AC00020011EBF23F02003A3830221D5E700BF2E
:100AD000A7840000D90A0000F8B504460D4600F1CD
:100AE00014064FF02003EFF3118783F31288BFF34E
:100AF0006F8F304604F056FE40B90A490A488E22EC
:100B000006F04FFD07488E2106F044FD304604F004
:100B100067FEA5613A4620460121BDE8F840FFF78F
:100B200025BE00BFA7840000788300002DE9F047B0
:100B300004460F4606F0A6FC051E54DB04F114091A
:100B40004FF02003EFF3118A83F31288BFF36F8F06
:100B5000484604F027FE40B9334934488E2206F057
:100B600020FD31488E2106F015FD484604F038FE80
:100B7000E38BA28B4FF6FF718B4202F007064AD03F
:100B8000022E1FD10133E38335464FF0010848465A
:100B900004F016FE40B924492448B92206F001FDAC
:100BA0002148B92106F0F6FC8AF31188BFF36F8F54
:100BB000B8F1000F17D0002332463946204606F020
:100BC0004BFC10E0930701D0062E0FD100233B60B1
:100BD0006368EBB9C4E900773546F6B9524602219D
:100BE0002046FFF7C3FD2846BDE8F087052E17D045
:100BF000012E0AD00E490D4840F2C91206F0D1FC70
:100C00000B4840F2C91106F0C5FC6FF0040504E082
:100C10001F606760E0E76FF00A054FF00008B6E775
:100C20006FF08505F9E700BFA78400007883000016
:100C3000858400002DE9F04F91B08B4602909246DA
:100C40001C4600259AF8000008B928465FE32528CD
:100C50000AF1010707D0029B594698470028C0F2C5
:100C60005683013512E2182200210AA806F0ECFC96
:100C70009AF80130252B78D00022104696469446EB
:100C80001646394617F8013B2B2B00F09D8000F2E9
:100C90009480202B00F09B80232B00F09B802EB1B2
:100CA0009DF8306046F004068DF83060BCF1000F0E
:100CB00005D09DF8306046F008068DF83060BEF132
:100CC000000F05D09DF8306046F010068DF83060BA
:100CD00028B19DF8300040F020008DF830002AB196
:100CE0009DF8302042F040028DF830209DF83020F1
:100CF00002F04400442803D16FF386128DF83020AF
:100D00009DF830202A2B42F080028DF830207BD1D4
:100D10009DF8312042F001024B1C8DF831201A78E9
:100D20002E2A9DF831200CBF0121002161F34102E0
:100D30008DF8312074D15A782A2A6AD001330021E3
:100D40000A26184610F8012BA2F13007092F40F2AD
:100D50008E809DF830200E91C2F3400040EAD171A0
:100D600061F341028DF830205AE00AF102078DF854
:100D700033309DF83130D90740F1498154F8049B54
:100D8000B9F1000F07DA9DF8302042F004028DF827
:100D90003020C9F100095A0740F1428154F8048B10
:100DA000B8F1000F80F241819DF831306FF34103BB
:100DB0008DF831304FF0FF3837E12D2B0CD0302B30
:100DC0007FF46DAF01225CE74FF0010C59E74FF063
:100DD000010E56E7012054E7012652E70CFB020200
:100DE000303A33461E4616F8010BA0F13007092FA2
:100DF000F4D9994293D09DF830100D92D20F62F33E
:100E000041018DF830108AE70B4600224FF00A0CA2
:100E1000E8E79DF8312042F004028DF831200233DA
:100E20001F4617F8012B6C2A41D025D8682A2BD0F1
:100E30006A2A46D04C2A4CD01F4617F8012B9DF841
:100E400031308DF83320782A00F2D980572A4DD8D6
:100E5000412A03D0453A022A00F2D1809DF832306F
:100E6000042262F302038DF8323001239EE006FB78
:100E700001213039034664E7742A26D07A2ADBD16F
:100E80009DF8313006220DE05A78682A9DF831200D
:100E900006D1012161F3C6028DF831209F1CCCE7F9
:100EA0001346022262F3C6038DF83130C5E75A7843
:100EB0006C2A9DF8312001D10421EBE7134603226F
:100EC000F0E79DF831300522ECE79DF8313007223C
:100ED000E8E7BDF8303023F4F04323F0020343F495
:100EE000804343F00203ADF83030A6E7A2F1580189
:100EF000202900F2848001A050F821F0C10F0000E9
:100F0000FF0F0000FF0F0000FF0F0000FF0F0000A9
:100F1000FF0F0000FF0F0000FF0F0000FF0F000099
:100F20005D0E0000FF0F0000C10F0000810F0000E8
:100F30005D0E00005D0E00005D0E0000FF0F000062
:100F4000810F0000FF0F0000FF0F0000FF0F0000E7
:100F5000FF0F0000C90F0000C10F0000E50F0000E7
:100F6000FF0F0000FF0F0000E50F0000FF0F000063
:100F7000C10F0000FF0F0000FF0F0000C10F0000B5
:100F80009DF83210012003F0780360F30201402B3A
:100F90008DF8321002BF9DF8301041F001018DF83C
:100FA0003010632A31D1003B18BF01239DF8302057
:100FB000C2F340010B4363F341028DF83020D8E6C1
:100FC0009DF832100220DEE79DF8322003F078030E
:100FD000A3F14000032161F3020243428DF8322065
:100FE0004341E3E79DF83220032113F0780F61F3CA
:100FF00002028DF8322014BF01230023D6E79DF8AA
:10100000303043F001038DF830300023CEE79DF9F6
:101010003020002AB4BFDDF834904FF0FF39BAE633
:101020009B077FF5C7AEDDF838809DF831100023AF
:10103000CDE90D339DF8323003F00703012BC1F3E6
:10104000C30138D1CB1E042B22D8DFE803F00309FB
:101050000921210054F8043BDA17CDE90A3206E0F1
:10106000073424F00704F4E80223CDE90A239DF8AD
:10107000303013F0030656D002983B46524659468C
:1010800006F072FA0028C0F242810544BA46D9E55A
:1010900054F8043B01294FEAE372CDE90A3205D145
:1010A0009DF828300A9300230B93E0E70229DED154
:1010B000BDF92830D0E7022B23D1CB1E042B13D847
:1010C000DFE803F0030A0A12120022680A920023E2
:1010D000201D0B930446CAE7E01D20F00700F0E84E
:1010E0000223CDE90A23F5E754F8043B0A930129CA
:1010F0004FF000030B93D3D00229B8D1BDF82830AC
:10110000D0E7042B09D1E31D23F0070303F1080402
:10111000D3E90023CDE90A23A9E7032B04BF54F840
:10112000043B0A93A3E79DF833007828AED86228E1
:1011300022D825283FF48FAD5828A7D10DF12603DA
:101140000093DDE90A0104AB0CAA06F0C7F9824658
:10115000B8F1000F0DF126000CDB9DF83020A0EB5C
:101160000A036FF3861298458DF8302002D9A8EB58
:1011700003030D9380463DE06338152886D801A20D
:1011800052F820F005120000691200008D100000D6
:101190008D1000008D1000008D10000069120000FD
:1011A0008D1000008D1000008D1000008D100000CB
:1011B000C312000091120000951200008D10000073
:1011C0008D100000DD1100008D1000009112000054
:1011D0008D1000008D10000091120000B8F1000F7A
:1011E000DDF828A00ADB4146504606F019FA0AEB62
:1011F00000080026BAF1000F0CD147E7504606F070
:1012000008FAF4E70A9B8DF8103000260DF1100A59
:101210000DF11108A8EB0A0306B101339DF8322045
:10122000D00668D5023352060D9948BF0E9A0B447A
:1012300048BF9B18B9F1000F76DD9DF83020A9EB6F
:101240000309C2F38003039353076DD4500661D59D
:1012500046B1029B594630469847002857DB039B0E
:1012600001351E46302356E01E070FD413F010063A
:1012700018BF2026DDE90A23002BBFF65FAF5242DC
:1012800063EB4303CDE90A232D2657E72B26F1E72D
:10129000002653E70A9840B30DF1260300930CAAE9
:1012A00004AB002106F01AF9BDF8323003F0EF0369
:1012B00043F4F04343F010038246ADF83230002689
:1012C00046E70A9B07293FF6E1AEDFE801F00C0490
:1012D000060C08080C0C1D70D8E61D80D6E6EA172F
:1012E000C3E90052D2E61D60D0E6DFF8C8A006468A
:1012F0000AF105088EE7110748BF013393E7184646
:1013000003935946029B98470028039B04DA11B0C7
:10131000BDE8F08F20234D444A46002AA5EB090181
:1013200009F1FF39EBDC0D4636B1029B59463046D8
:1013300098470028EBDB01359DF83230D90601D4FF
:101340001A0706D5029B5946302098470028DEDB55
:1013500001359DF83230DB0607D59DF83300029B3E
:10136000594698470028D2DB01350D9E2E44731B49
:10137000002B16DC029843465246594606F0F4F814
:101380000028C4DB0544A944A9EB0503002B7FF723
:101390007DAE029B5946202098470028B7DB0135D7
:1013A000F2E7029B5946302098470028AFDB013511
:1013B000DDE700BFD484000008B54FF02002EFF352
:1013C000118382F31288BFF36F8F00F0FFFF034891
:1013D00006F019F800F056FAFCE700BFDA840000C6
:1013E0002DE9F84305464FF02003EFF3118683F310
:1013F0001288BFF36F8F1D4804F0D4F940B91C491F
:101400001C488E2206F0CDF819488E2106F0C2F84D
:10141000164804F0E5F9184B1C689CB1174FDFF82B
:1014200060804FF00C09D4E90132002D08BF13464B
:101430002BB198F8142009FB02F2B85C9847246895
:10144000002CF0D1094804F0BBF940B9084909481B
:10145000B92206F0A6F80648B92106F09BF886F3F3
:101460001188BFF36F8FBDE8F88300BF0C03002025
:10147000A7840000788300001003002018030020D8
:10148000CC0A00204209012300F01F0003FA00F0FB
:10149000074BBFF35B8FC04303EB820353E8002F7E
:1014A000024043E800210029F8D1BFF35B8F704769
:1014B0002403002038B51A4B1C7DBFF35B8F04F06A
:1014C0001F0301229A40174B6109D04303EB8103AC
:1014D00053E8001F01EA000543E8005CBCF1000F7F
:1014E000F6D1BFF35B8F114213D00F4B0F4D8BB171
:1014F0000C236343EA18E85C517806F0BDF800203D
:10150000FFF76EFF0C235C432A1900232B51C2E91D
:10151000013338BD83F31188BFF36F8FEFE700BF4E
:10152000CC0A002028030020797600001803002050
:101530002DE9F843324B334A1C7DBFF35B8F6309BF
:101540004FEA830952F823302F4EBFF35B8F04F02C
:101550001F0843FA08F313F0010F07460AD10146AA
:10156000204600F069F828B107C80C2303FB046388
:1015700083E807000C236343F218F55C2DB920467D
:10158000FFF780FF2846BDE8F8837B1C0FD0D2F818
:1015900008C01E481E4A4FF4004500210023ECFB02
:1015A0000501FEF7ADFD0121381A05F01DFC04F020
:1015B000F5FB0120FFF714FFBFF35B8F012303FA54
:1015C00008F8144B994459E8003F43EA080349E8F6
:1015D0000032002AF7D1BFF35B8F0F4B33B10C23DE
:1015E0006343F218F05C517806F03AF8FFF762FFB7
:1015F0002046FFF747FF04F0F5FF0120C3E700BFD7
:10160000CC0A002024030020180300203F420F00D2
:1016100040420F002803002061760000054BBFF315
:101620005B8F53F82000BFF35B8F003818BF012099
:10163000704700BF2C0300202DE9F04F85B00F4606
:1016400003A900F047F8DFF88080DFF880A0441E8F
:1016500024B24FF0000B631C04D10026304605B0C5
:10166000BDE8F08F039A04EB440302EB830612F803
:101670002300FFF7D3FF054610BB70684FF4004905
:10168000C4462946E0FB09C152465B466046FEF768
:1016900037FD0190B068C4462946E0FB09C15B46AE
:1016A00052466046FEF72CFD094B1B68591C01D0C1
:1016B000834205D97A1CD1D0019B1844B842CDD9B8
:1016C000013C24B2C7E700BF3F420F0040420F0079
:1016D0000400002008B9024B0B600020704700BFD7
:1016E000E87F0000014805F0EDBC00BFE87F000086
:1016F00010B5044618B90D4B0D485B6898476168F2
:1017000008290DD031F004030AD011F0020108D0ED
:101710000848214603F020FF002323600023636074
:1017200010BD2068142205F08FFFF7E7F4000020B9
:10173000068500004803002008B508B34368042B61
:1017400010D101220368BFF35B8F53E8001F00290B
:1017500003D143E800200028F7D1BFF35B8F0BD102
:10176000002008BD53B100684FF0FF324FF0FF3347
:1017700004F06CF80028F3D00348F2E70348F0E7E0
:101780006FF4E040EDE700BFE98FFFFFEA8FFFFF56
:1017900008B5D0B14368042B11D100220368BFF310
:1017A0005B8F53E8001F012903D143E80020002884
:1017B000F7D1BFF35B8F074808BF104608BD3BB1A8
:1017C000006804F015F90020F8E76FF4E040F5E751
:1017D0000148F3E7E98FFFFFEA8FFFFF10B50446EA
:1017E00018B9164B16485B6898476368042B23D0DA
:1017F000082B21D0CBB92368BBB912484FF0FF3278
:101800004FF0FF33214603F04DFE08B923681BB9A2
:101810000A4B0D485B68984720681422002105F0A8
:1018200013FF636843F002036360206806F028FA40
:10183000636843F00103636010BD00BFF400002043
:1018400006850000480300202C85000008B50649E5
:1018500006484023142206F0E0F9BDE80840044998
:10186000044805F08FBC00BF680300204803002037
:1018700000800000F07F0000014910220A607047DC
:1018800010ED00E072B6404080F31188BFF36F8F17
:10189000BFF34F8F30BF62B6BFF36F8F704700BF8B
:1018A00072B6494081F3118820BF80F3118862B677
:1018B000704700BF37B505460C46C9B18B68009329
:1018C000D1E900230E48452105F079FE63690093B4
:1018D000D4E903230B48452105F071FEE2690A486B
:1018E000452105F06CFEA2690848452105F067FE18
:1018F0002146284603B0BDE8304003F07DBC00BF60
:10190000598500008D850000C1850000D585000047
:1019100043B2002B08DB012200F01F0002FA00F0A6
:101920005B09024A42F82300704700BF00E100E073
:1019300043B2002B0DDB01225B0900F01F0002FA0D
:1019400000F02033034A42F82300BFF34F8FBFF368
:101950006F8F704700E100E0054B420900F01F0067
:1019600053F82220012303FA00F01040704700BF13
:1019700000E100E038B54C1C072C054608D90E499B
:101980000E48572205F00DFE0B48572105F002FEC8
:101990006BB2002BACBF03F16043094B4FEA441418
:1019A000B8BF05F00F05E4B2AABF03F561435C556B
:1019B00083F8004338BD00BF08860000788300002C
:1019C00014ED00E008B572B6044B9A691AB1002212
:1019D0009A6106F046F962B608BD00BFCC0A002045
:1019E00030BFFFF7FDBF00BF0B4A08B50B4B22F01D
:1019F0007F029A60BFF34F8FBFF36F8FD3F88820B9
:101A000022F47002C3F8882003F06CFC05F068F83B
:101A100000F0FCFA03F0AAFC0000000000ED00E07A
:101A2000094A0A49936809689967094958674B68E0
:101A300043F080534B60002383F31188BFF36F8F13
:101A40009368986F704700BFCC0A0020488100005F
:101A500000ED00E012498A684FF030001044EFF3C7
:101A6000098C80E8F01F202080F31288BFF36F8F6D
:101A70000C4F4FF00066CA698A603E60506F0023C9
:101A8000536780F3118804B5104600F05BFBBDE896
:101A9000044002F1300090E8F01F8CF30988704791
:101AA000CC0A002004ED00E01EF0040F0CBFEFF3A1
:101AB0000880EFF30980816911F8021C0229FFD028
:101AC00001B505F08DFD01BD42F8203C009B42F8B8
:101AD0001C3C0A49019B42F8183C029B42F8143C0A
:101AE00021F001014FF0807342F8043C42F8081CD9
:101AF0000023203A02654367704700BFC9740000A5
:101B0000094A0346906870B113F1160F406E05D074
:101B1000A0F120029A4205D8834203D2814228BF15
:101B20000020704700207047CC0A002008B5094B00
:101B300098600D46144600F005FB204685F30988A1
:101B4000002163B681F31188BFF36F8F0022002359
:101B500005F0BAFCCC0A002001B572B60B4A9069B8
:101B600000281EBF0021916106F07BF862B6EFF3FA
:101B70000580A0F110004FEAC0000549014409C9E1
:101B80009847BDE80140034908470000CC0A0020FF
:101B9000BC7D0000991B0000044B9968D8698842FD
:101BA00003D003494FF080520A607047CC0A0020EE
:101BB00004ED00E02DE9F041394C80460D463948EE
:101BC0004521164605F0FBFCA36ADA0603D5364824
:101BD000452105F0F4FCA36A1B0703D533484521D2
:101BE00005F0EDFC2E4CA36A9F0729D46FF0150772
:101BF0002B4CA36AD90703D52D48452105F0DFFCFE
:101C0000A36A9A0603D52B48452105F0D8FC244D3C
:101C1000AB6ADB0628D4AB6A9C0725D40024204B92
:101C20009A6A920642BF5A6A22F400525A629A6A2B
:101C300042F0FF029A62002333702046BDE8F08133
:101C40001D48452105F0BBFC676BA36A1806CDD57E
:101C50001A483A46452105F0B2FC002DC8D0A36AC7
:101C600023F08003A362C3E76B681805D6D541460D
:101C70003846FFF745FF044618B180F3098802246F
:101C8000CDE7AB6AD906C9D50D490E4840F24912D5
:101C900005F087FC0A4840F2491105F07BFCBEE7DD
:101CA00000ED00E03E8600005986000091860000AD
:101CB000E186000005870000A9860000C6860000B6
:101CC000398700007883000010B51D4C1D48452160
:101CD00005F075FCA36A9B0103D51B48452105F05F
:101CE0006EFCA36ADC0103D51848452105F067FCAA
:101CF000134CA36A180303D51548452105F05FFC72
:101D0000A36A590303D51348452105F058FC0C4C30
:101D1000A36A9A0303D51048452105F050FCA36A35
:101D2000DB0303D50D48452105F049FC044A936ABD
:101D30006FEA03436FEA13439362002010BD00BFB4
:101D400000ED00E07387000090870000A887000086
:101D5000C7870000EA87000014880000338800006D
:101D600070B5234C06460D462248452105F027FC58
:101D7000A36AD90403D52048452105F020FCA36AB5
:101D80001A0503D51D48452105F019FC184CA36A16
:101D90009B0510D51A48452105F011FCA26BA36ADA
:101DA000180408D51748452105F009FC1EB1A36A9F
:101DB00023F40043A3620E4CA36A590503D51248CD
:101DC000452105F0FCFBA36ADA050BD50F48452138
:101DD00005F0F5FB064A936A002043F47F439362C3
:101DE000287070BDA36A9B04F4D509484521EFE72C
:101DF00000ED00E0638800007E880000918600000E
:101E000094880000B2880000CC880000EC880000B4
:101E1000058700002DE9F041664BD3F804808AB0B5
:101E2000C8F30805002787F31188BFF36F8F02F00E
:101E30007F43B3F17F4F07D102F00C03082B10D181
:101E40005D48452105F0BBFB5C495D4840F2FB3233
:101E500005F0A7FB594840F2FB3105F09BFB00263B
:101E600006E012074EBF0E4606460127002EEBD0B5
:101E70000024EB1E8DF80740092B00F28880DFE874
:101E800003F0057B7F63868686868683494D4D48B1
:101E9000452105F094FB8DF80740EC6A14F002042C
:101EA00005D04948452105F08AFB002406E0EB6A8D
:101EB000002B1DDA4548452105F081FB9DF80730D0
:101EC0009BB92022314602A805F0B3FB099B002FE5
:101ED0006AD0C3F3080222B96FEA53236FEA43239F
:101EE000099302A92046FFF7E5FC0AB0BDE8F0819E
:101EF000EB6A5B0037D53648452105F060FBB369D6
:101F000033F8022C4DF602739A4206D132683148FA
:101F1000452105F054FB3468D0E795F828303BB1F3
:101F20000DF1070201213046FFF744FE0446C5E7E4
:101F300095F829302BB10DF107010120FFF710FFB3
:101F4000F4E76B8D9BB213B1FFF7BEFEEEE71B49C2
:101F50001B4840F2CD2205F024FB40F2CD2117486A
:101F600005F018FBAAE71549154840F2D12205F003
:101F700018FB40F2D121F2E70DF107020021D2E770
:101F80000DF107010020D9E7134845218BE71349DC
:101F9000134A144818F4F87F08BF0A46A5F1100345
:101FA000452105F00CFB80E723F4FF7323F00103C8
:101FB00096E700BF00ED00E0378900003987000098
:101FC000788300006789000083890000A9890000E8
:101FD000BC890000E0890000018A00000989000036
:101FE0001E8900002A8A0000024A536943F0100348
:101FF0005361704700ED00E0EFF30880EFF30981D3
:1020000001B57246FFF706FF01BD00BF044800237B
:102010002021C2180133302B82F80013F9D1704708
:1020200000E100E0002080F31488BFF36F8F05F01B
:1020300053FE00200D490860BFF34F8F0C4880F31A
:10204000088800F02BF8202080F3118809484FF40D
:102050000261401880F30988EFF3148002210843DD
:1020600080F31488BFF36F8FFFF7BEFC94ED00E0A0
:1020700000180020801900200749D1F89020002383
:10208000C2F307221846934200D17047C1F8983036
:10209000C1F8A0000133F6E700ED00E008B572B624
:1020A000002383F31388FFF7E7FF144B4FF0FF3251
:1020B000C3F88020C3F88420C3F88820C3F88C209C
:1020C000C3F89020C3F89420C3F89820C3F89C204C
:1020D000C3F88021C3F88421C3F88821C3F88C2178
:1020E000C3F89021C3F89421C3F89821C3F89C2128
:1020F00062B6BFF34F8FBFF36F8F08BD00E100E002
:10210000084B9B6883420BD1EFF3058343B1064B29
:102110005A6842F080525A605A6A22F400425A6267
:1021200004F04ABCCC0A002000ED00E0024B034A58
:102130000348012100F07CB80000042000000020CA
:1021400014800000426E054B203A1A60044A202198
:10215000C3E901121846012100F088B86808002080
:1021600000000B15F8B5244F154600228A420EDAFE
:102170004468002C3CD093B104F1FF3C14EA0C0FEE
:1021800007D01E48452105F01AFA6FF015052846BC
:10219000F8BD1F2CF5D906681CEA060FF1D1202CDA
:1021A0000668D0F808C0EDB210D9B4F1004F0FD8CE
:1021B000013CB4FA84F4C4F11F046400072D4CEA16
:1021C000040407D90E482A464521DCE70824F5E730
:1021D0003E24F3E726F01F062E4346F0100644F097
:1021E0000104C7F89850C7F89C600135C7F8A040B3
:1021F00001320C30BAE700BF00ED00E0468A000073
:102200006E8A0000044B0522C3F89420BFF34F8F61
:10221000BFF36F8F704700BF00ED00E0BFF35F8F2B
:10222000024B0022C3F89420704700BF00ED00E08D
:1022300010B50B4C01232278FFF794FF2070163065
:102240000CD10849084840F2111205F0AAF9BDE87E
:102250001040044840F2111105F09CB910BD00BFB8
:10226000310D0020998A00007883000008B5104ADB
:1022700000231278FFF776FF10F1160F0AD00D4BEE
:102280000022072800DD08BDC3F89800C3F8A0208D
:102290000130F6E7084909484FF4987205F081F9D2
:1022A000BDE8084004484FF4987105F073B900BFC9
:1022B000310D002000ED00E0998A000078830000D5
:1022C000224910B50C68082C0DD9214921484FF43A
:1022D000A47205F066F91E484FF4A47105F05AF98E
:1022E0004FF0FF3010BDFFF799FF48681A490022F0
:1022F000944200F10C0016D1184B1C70FFF782FFBE
:10230000D1F89030C3F30723082B0AD010491148A5
:102310004FF4D47205F045F90D484FF4D47105F02F
:1023200039F90020DEE7C1F8982050F80C3C23F082
:102330001F03134343F01003C1F89C3050F8043CD2
:1023400043F00103C1F8A0300132D1E72080000042
:10235000998A00007883000000ED00E0310D002034
:10236000014B1860704700BF2800002010B54FF0E7
:102370002003EFF3118083F31288BFF36F8F114AAC
:102380000123C2F840354FF080424FF08051C2F82F
:102390007835D1F83041082C08D1D1F8341105290D
:1023A00004D8094C615C09B1C2F838364FF080435B
:1023B0000122C3F8802580F31188BFF36F8F0020BE
:1023C00010BD00BF00E00140E38A00004FF08043F1
:1023D000C0B2C3F81C05BFF34F8F0549054BCA684F
:1023E00002F4E0621343CB60BFF34F8F00BFFDE701
:1023F00000ED00E00400FA0520B1034B800143F03A
:1024000001031847704700BFC07F000037B50C4676
:102410000A490B4A411A40230093491105462346B5
:10242000084805F042F9011E05DA2846234603B0A4
:10243000BDE83040184703B030BD00BF840800201D
:1024400019770000447D000038B5CCB2012C054658
:1024500008D908490848792205F0A3F805487921E8
:1024600005F098F829690C2304FB0314A06C00F014
:10247000070038BDE98A000078830000F8B5CCB2C7
:10248000012C0669054617460AD91849184840F232
:102490004D1205F086F8154840F24D1105F07AF816
:1024A0004FF02003EFF3118183F31288BFF36F8F96
:1024B0000C2202FB04639B6C13F0C00301D09F420B
:1024C00011D102FB04660123B364002081F311885B
:1024D000BFF36F8F30B969680C2303FB0414636882
:1024E00098470020F8BD4FF0FF30EFE7E98A000081
:1024F0007883000070B50D460649411A044649111B
:1025000005484022FFF7BAFF2B4601462046BDE8AA
:102510007040184784080020447D0000002270B5F8
:10252000012104461046FFF725FA0F4802F000F992
:102530000E4B984215D102F01DF926690C49304620
:1025400004F0AFFF00280BDB246909490125B564BD
:1025500004F1200004F0A5FF002801DB65650020E0
:1025600070BD6FF00400FBE7A92500000000AD0B73
:102570007080000001460C2309484B4370B5C41815
:10258000D4E91056002248332264184405F07AF842
:102590002DB132462B460348BDE87040184770BD48
:1025A00084080020447D0000012808B506D00328D7
:1025B00008D0A0B90F4B9B6C5B0719D1BDE8084050
:1025C000FFF7D8BF0C490D4840F25E2204F0E9FF46
:1025D00040F25E21BDE80840074804F0DBBF064931
:1025E000064840F2622204F0DCFF40F26221F1E78B
:1025F00008BD00BF84080020E98A0000788300003D
:1026000008B54FF02003EFF3118183F31288BFF375
:102610006F8F124A136843F0020013F00103106039
:102620000CD04FF08042D2F80C34D2F80C2413F0C6
:10263000010303D00A4805F025F8012381F311882E
:10264000BFF36F8F23B1BDE808400020FFF792BFB2
:10265000BDE80840012002F0AFB800BFDC08002050
:10266000CC0800201FB500220123CDE90223094A2E
:10267000CDF800D06B46CDF804D005F046F8002820
:1026800005DB4FF480420023684603F07FFA05B073
:102690005DF804FB37770000094BBFF35B8F53E80D
:1026A000002F22F0020143E800100028F7D1BFF309
:1026B0005B8FD30702D4012002F0DCB8704700BF63
:1026C000DC080020024BC0B203EB4010704700BF93
:1026D000840800202DE9F0414649BFF35B8F064690
:1026E000012251E8003F41E800200028F9D1BFF362
:1026F0005B8F9BB9404941484B60CB608A60FEF7D5
:1027000015FA00280ADA3E493E484FF4087204F0F0
:1027100048FF3B484FF4087104F03CFF96B3731E2A
:10272000012B53D8012E07D14FF08043D3F81C342E
:1027300003F00303012B25D005F08BFA044618B9EA
:10274000314B1B78002B4ED14FF02003EFF3118754
:1027500083F31288BFF36F8F0124DFF8B0804FF04E
:102760008045D5F81834D5F81824D2030CD503F0D9
:102770000303012B01D0012E06D10CB387F311887E
:10278000BFF36F8FBDE8F081ACB13846FFF788F832
:10279000D5F81835002BE4D1D5F80421002AE0D073
:1027A000C5F80431D5F804310123C5F81835C8F847
:1027B0008031AB60D5E70021212004F0C7F8E7E7BE
:1027C0004FF080430222C3F80423DBE70C490D4895
:1027D00040F2322204F0E5FEBDE8F041084840F244
:1027E000322104F0D7BE4FF080430222C3F8082301
:1027F0000746B2E7E008002074080020A408002083
:10280000E98A000078830000E413002000E100E082
:1028100008B5084B0848186005F0F1F938B10748C9
:10282000FFF79EFD0548FDF78DFF002008BD6FF006
:102830001200FBE7E4080020A47D0000412800000E
:102840000A2838B5074D044604D1286883680D214D
:102850005B68984728688368E1B25B6898472046C0
:1028600038BD00BFE408002070B5056916460C4667
:1028700041B91E491E48242204F093FE1B4824211E
:1028800004F088FE636843B918491948252204F00A
:1028900088FE1648252104F07DFE6B685BB100229E
:1028A0009C4212D12368A96852B9A1426B6000D141
:1028B000AB60002323606EB9002070BD0B46EFE7CC
:1028C000A142136008BFAA60F3E719681A460029FD
:1028D000F4D13EB1A8686B6823606C600028EBD12E
:1028E000AC60EAE76FF01500E7E700BF468B000039
:1028F000788300007FB54068057B01F01F04B2F5C6
:10290000001F44EA45144FF0000504D1204602F0B0
:10291000C5FA002052E0B2F5800FCDE902554FD143
:10292000B3F1007F0CBF042305238DF808308368C2
:1029300023FA01F111F0010153D1B2F1A07F50D17E
:10294000660948D04FF6FF73012E08BF194604F000
:102950001F05E940CA070AD42A492B4840F2292218
:1029600004F01FFE274840F2292104F013FE66B14F
:10297000012E33D02349244840F22E2204F011FEC8
:10298000204840F22E2104F005FE4FF0A04305F54B
:10299000E07553F82530DB0723D40DF107052946F0
:1029A000204602F0A7F9194B984219D1284602F0A7
:1029B00001FA174B984213D06FF00B0004B070BDB2
:1029C000B3F1C06F05D0B3F1007F0CBF0223012328
:1029D000ABE70323A9E74FF0FF31B8E70D4BD6E78C
:1029E00003950023194602AA204602F05BF8084B23
:1029F000984204D10121204602F0E2F989E76FF004
:102A00000400DBE7738B0000788300000400AD0B4B
:102A10000000AD0B0003005010B502F0BBF90446F6
:102A200068B902F08FF9084B98420AD1074821464D
:102A300002F05AF9224605210620FEF79BFF0020EE
:102A400010BD6FF00400FBE70000AD0B512A000041
:102A50002DE9F843430903D0012B28D0BDE8F883C2
:102A6000144F3B695C68002CF8D000F01F00012671
:102A70002568DFF84480DFF844908640A3681E4252
:102A800010D0636843B941464846452204F089FDA9
:102A90004521404604F07EFDD4E901322146324012
:102AA00038469847002DD9D02C462D68E6E7044FCC
:102AB000D7E700BF5C7D0000468B000078830000F4
:102AC000747D00002DE9F04347683B7B01F01F0552
:102AD00085B00E4645EA43151446CAB902A92846F0
:102AE00002F008F90446284602F002FA4A4B9842DE
:102AF00004D06FF0040005B0BDE8F083844205D136
:102B00009DF8080002F050F9A042F2D10020F2E74F
:102B10004FF000090DF103013046CDE9029902F0B2
:102B2000E9F84B46804602AA4946284601F0BAFF1A
:102B3000394B984202D06FF01500DCE7804503D195
:102B40009DF8030002F030F9A30351D540F206636B
:102B5000234040F2062293423BD00CD8062B15D0DE
:102B600004D89BB1022BE6D104230FE0B3F5007F1C
:102B7000E1D101230AE040F2024293422BD0B3F5A7
:102B8000C06F2AD0B3F5806FD5D102238DF8043001
:102B900084F48033C3F30043E0068DF8053054BF5E
:102BA000C4F34013032321038DF8063017D57B6847
:102BB000012101FA06F6C3F80865002201A928469A
:102BC00002F01EF8144B984214BF6FF0150000205D
:102BD00091E70723DAE70523D8E70323D6E7620363
:102BE00041BF7B68012101FA06F6C3F80C65E4E7F2
:102BF000E3064FF0000354BFC4F3401403241A4605
:102C000001A928468DF8044001F04CFF024B984280
:102C10003FF47CAF8FE700BF0000AD0BF0B54B7900
:102C2000012B26D0032B21D110268B79032B1DD10C
:102C3000CC790CB1012C19D10A7912B1022A15D123
:102C40000E220B684568B3F5164F2D6865D02DD858
:102C5000B3F5165F64D016D8B3F5966F62D00AD874
:102C6000B3F5967F61D0B3F5167F61D06FF0850024
:102C700052E00026D9E7B3F5166F5CD0B3F5965F46
:102C8000F4D1374B3CE0B3F5E14F57D007D8B3F55B
:102C9000615F55D0B3F5964FE8D1324B30E047F63F
:102CA0001227BB42E2D14FF4000329E0B3F5613FA4
:102CB00048D013D8B3F5963F47D009D84DF6C02772
:102CC000BB4244D0B3F5614FD0D14FF46B0317E052
:102CD000B3F5E13FCAD14FF0EB7311E0B3F5612FCB
:102CE00038D008D8204FBB4237D0B3F5E12FBDD143
:102CF0004FF0E86304E01D4FBB42B7D14FF0805363
:102D00000069C5F82435031D03C934432243C5F8BF
:102D10006C2583E803000020F0BD4FF41D03EFE7AE
:102D2000134BEDE74FF49E23EAE74FF4A033E7E7B8
:102D30004FF41C33E4E74FF41D23E1E70D4BDFE7CD
:102D40000D4BDDE74FF06C73DAE70C4BD8E74FF42F
:102D50006503D5E74FF07063D2E74FF08063CFE7AC
:102D600000B0130000A04E0090D0030040420F00BE
:102D70000050270000C0750000F03A0000903A01B2
:102D80002DE9F743D0F804800669D8F80040D8F858
:102D90000C900021C4F800150746306001AA48468F
:102DA00004F07DFD051E1FDB019BD9F80020197979
:102DB000186804F0CBFD051E16DB311D3846FFF701
:102DC0002DFF054680B9D8F80430990723D506F1C0
:102DD000120002F089F9254B984209D02448452178
:102DE00004F0EDFB6FF00405284603B0BDE8F08366
:102DF000B07CC30003F1804303F5F83304F10C0207
:102E000004F59071C3F81015C3F81425194A01236D
:102E10008340C2F804350823C4F8003598F8083018
:102E20005BB9C4F81031D4F8103106F11103C4F8BD
:102E300034350123C4F838352360D8F804309A07B4
:102E40005CBF4FF48072C4F80423DB0644BF4FF428
:102E50008003C4F8043310360023C4F84465C4F872
:102E600048350123A360E360BEE700BF0000AD0B5F
:102E7000B48B000000F00140F8B5066905460F4626
:102E800004F0E7FE10B92C4B1B7883B94FF02003F8
:102E9000EFF3118483F31288BFF36F8F686804F037
:102EA00096FC28BB84F31188BFF36F8FEEE7642490
:102EB000686804F08CFC70B9012004F017FE013C36
:102EC000F6D10021212003F041FDF0E784F31188C1
:102ED000BFF36F8FF5E74FF02003EFF3118483F317
:102EE0001288BFF36F8F686804F071FC0028EDD082
:102EF00006F8107F69680B680122C3F84465C3F8BF
:102F000048250022C3F82021D3F82001C3F8582116
:102F1000D3F858214A68D20641BF0822C3F80025D9
:102F20004FF48002C3F8042301229A6084F31188CD
:102F3000BFF36F8FF8BD00BFE413002010B501236D
:102F40008340114ABFF35B8FDC4352E8001F01EA64
:102F5000040C42E800CEBEF1000FF6D1BFF35B8F48
:102F60004FF4803202FA00F002F1804202F5805202
:102F7000C2F80803BFF35F8FBFF36F8F0B4214BF1C
:102F80000120002010BD00BF040900201949F8B538
:102F9000044622F07F450868C1E90023A5F5001327
:102FA000101AB3F5400F22D2134B1B681A0A1B06E6
:102FB0005E19124B42F10007C3E90067012603F0D6
:102FC00051FFA30003F1804303F58833D3F8402574
:102FD000AA420BD11EB94FF40002C3F84025084B9A
:102FE0004FF4803000FA04F4C3F84443F8BD0026DF
:102FF000E5E700BFF801002008090020E0010020FB
:103000000010014019B3BFF35B8F0123104A8340C6
:1030100052E8001F194342E8001CBCF1000FF7D131
:10302000BFF35B8F0B4A4FF480338340C2F8043305
:10303000094BBFF35B8F1B68BFF35B8F23FA00F074
:10304000C30742BF054B4FF40032C3F8002170475D
:1030500004090020001001400009002000E100E008
:103060000D4B1868010A0006BFF35F8F0B4BD3F8B6
:103070000435181841F10001B3F5801F0AD2084B3E
:10308000D3E90023904271EB030303D210F1807067
:1030900041F10001704700BF080900200010014005
:1030A000E00100202DE9F04F85B016469846054610
:1030B000FFF744FF0090FFF7D3FFB04271EB080326
:1030C00078D2464B301A68EB0101984271F1000347
:1030D00080F08180424B03EB0513D3E902ABD84566
:1030E00008BF564551D04FEA850909F1804905F1DD
:1030F000500709F58839BF004FF4803101FA05F314
:10310000BFB226F07F4207F180470193D9F840050E
:10311000344B07F588371446D3F80415401A20F0CD
:103120007F4021F07F4C0128C9F840C507D1CDE987
:103130000221132004F0CBFDDDE90221294B01F12E
:10314000020CA4EB0C0020F07F40B0F5000F88BF0C
:1031500064460020386038680198C3F8440324F0BE
:103160007F40C9F84005D3F80405814206D0201AF3
:10317000023820F07F40B0F5000F19D8A41A24F0CF
:103180007F4414EB060A48F1000B15490E982B01F9
:1031900001EB0512C2E902ABC8500F9B536000243B
:1031A00028460099FFF72EFF204605B0BDE8F08FB6
:1031B0002046B1E701230C4ABFF35B8FAB4052E8D6
:1031C000001F194342E800100028F8D1BFF35B8FBD
:1031D000B246C346D9E76FF01504E1E701000001EC
:1031E000E8010020001001400009002073B5194BD0
:1031F000194D00244FF0FF304FF0FF31C5F808455E
:10320000C3E902014FF48033C5F80433134B02269F
:103210004FF400320121C5F804631120C3F8802166
:103220002246FEF7A7FB1120FEF772FB0C4A012392
:10323000AB602B6013600B4B0B4A0093019400238F
:103240002046FFF72FFF3046FFF744FA204602B032
:1032500070BD00BFE80100200010014000E100E067
:10326000040900208D2F0000FFFF7F002DE9F743A8
:10327000354CD4F804339A070BD5D4F8043143B154
:10328000324A0023C4F80431D4F8043113680133FE
:1032900013604FF02003EFF3118283F31288BFF322
:1032A0006F8FD4F80433DB0312D5BFF35B8F284B49
:1032B00053E8001F21F0010043E80006002EF7D17B
:1032C000BFF35B8F002936D1D4F84031002B32D1C7
:1032D000002382F31188BFF36F8F4BB3FFF7C0FE5B
:1032E0004FF02003EFF3118C83F31288BFF36F8F3D
:1032F000184BD3E90267B04271EB07024FF00002AE
:1033000020D34FF0FF384FF0FF39D3E90015C3E960
:1033100002891A604FF48033C4F848338CF3118863
:10332000BFF36F8F21B1009532463B46002088479E
:1033300003B0BDE8F0830023C4F84031D4F8403135
:103340000123C6E71146E9E7001001400809002003
:1033500000090020E8010020431C13B521D00128FA
:1033600021DDB0F5000F20DA441EFFF779FE104B87
:10337000D3E90013401AB0F5000F28BF0024013034
:1033800002190C48824228BF024652184FF0000032
:1033900009490190009143F10003FFF783FE02B059
:1033A00010BD0448E0E70024DFE7024CDDE700BF82
:1033B000F8010020FFFF7F008D2F000008B5FFF708
:1033C0004FFE024B1B68C01A08BD00BFF801002069
:1033D0000268530910B504462AD0012B4FF6FF733B
:1033E00018BF002302F01F02D340DB070AD41349A1
:1033F000134840F2292204F0D4F8104840F2292161
:1034000004F0C8F8236803F01F025B0922600CD0A7
:10341000012B10D009490A4840F22E2204F0C1F8CD
:10342000064840F22E2104F0B5F84FF0A04010BD40
:103430004FF0FF33D6E70348F9E700BF738B000076
:103440007883000000030050034808B5452104F0CC
:10345000B6F80020FEF7BAFFF68B00000649074BCE
:10346000C1F81435064B5B7C5A1E064B43EA0243F7
:10347000C1F81835704700BF001000400600030077
:103480005400002020000001074A084BC2F8143500
:10349000074B5B7C013B40EA034343EA002040F0DA
:1034A0008070C2F81805704700100040000101004C
:1034B000540000200B4B0C4A1B7AC2F81035042B29
:1034C0000DD8DFE803F008030C080300074BA02227
:1034D0001A6001207047054B4FF49672F8E7002000
:1034E000704700BF9009002000100040180A00201B
:1034F000044A0023C2E908339362034AC2E908334D
:1035000093627047E8090020BC09002038B5194CC7
:10351000194840F21313C4F80032184B1A68184BBC
:10352000C3F840258289823AC3F84425002101224C
:10353000DA60C3F84011C3F844111A60114B1D68DA
:10354000114BC3F80455114D2D78AA40C3F8082536
:10355000C4F80C11007810B90D4B1B6898470D4B3F
:10356000C4F804350C4B0D4A1A600D4B03221A7037
:1035700038BD00BF0010004090090020180A00204C
:1035800000A00040B409002000F001403F0D0020E1
:10359000140A0020680E0020B009002049380000FD
:1035A000330D002010B5104C104A40F21313C4F82C
:1035B00000320F4B507C1B6898470E4BC4F8043503
:1035C0000023C4F8103101232361D4F81031002BFB
:1035D000FBD00023C4F8103140F21713C4F80032B6
:1035E0000123636010BD00BF00100040900900205F
:1035F000140A0020680E002010B50A4C0A4A40F256
:103600001713C4F80032094B507C1B689847084BCD
:10361000C4F80435074B084A1A60084B04221A7094
:1036200010BD00BF0010004090090020140A0020C7
:10363000680E0020B0090020F13B0000330D00208F
:103640004FF02003EFF3118183F31288BFF36F8FE4
:10365000074B9A6A013A9A625A6A0132072A88BF6E
:1036600000225A6281F31188BFF36F8F704700BF49
:10367000E80900202DE9F0411F4BDFF880801A781F
:10368000012A07460E4609D198F80030202B31D880
:103690001B4A116A52F82120137006E0184A116A79
:1036A00052F82120597819BB1170154C1549236A1D
:1036B00054F8230010F8052B03F0BBFF236A124ACD
:1036C00054F8235001336F70D2F84825AA70072BA5
:1036D00088BF002398F801202362A36A2E71D24389
:1036E00002F001020133EA70A3620120BDE8F0811B
:1036F0005B7CD1E70020F9E790090020680E0020EC
:10370000BC0900206A0E002000100040F8B53F4BB5
:103710003F4F404E3C78404D01221A603F4B5A6A61
:1037200053F8221031600CB3012C3ED033683C4C6E
:103730005B78C4F82C35012606FA03F3C4F830355B
:10374000384BDB7CC4F80835374BC4F804550222EB
:10375000C3F880213046FEF7DBF80023C4F80431BB
:10376000C4F80831C4F810312660F8BD2F4B087832
:103770001B68984731686C700B792B7011F8052B1A
:10378000A81C03F056FF264B40F21B12C3F8002280
:103790001122C3F80423264BFA891A60254B264AC6
:1037A0001A60264B02221A70C0E7CB7813B1BC7C9A
:1037B00084F001040A782A70B3FA83F30A79204866
:1037C0005B0943EA42036B7011F8052B03F031FFEC
:1037D000134B1849194A74B140F21B10C3F8000288
:1037E0001120C3F80403124BF8891860124B0B60C8
:1037F000022313709AE740F21310C3F8000210205E
:10380000C3F804030F4B0B600123F2E7AC0900205F
:10381000900900208C090020B20F0020E809002048
:10382000001000405400002000E100E0140A0020D5
:10383000B8090020B00900200D350000330D00202C
:10384000B40F0020993A0000434B1A68434B70B5FF
:10385000C3F80825A3F5F033414AD3F80C11002929
:1038600042D0D3F80034002B3ED03E4B3E4C3F4D6F
:103870003F4E0121196123680B4323601268EB89D5
:103880009B1A3C4A0B441360B36A0BB1FFF7D8FE96
:103890002B789BB1384B1A7882B1384AD2F82C0574
:1038A000374A926A072A09D85978C0B24908FFF7FF
:1038B000E1FE18B1236843F004032360B26A314B80
:1038C00012B12A7C012A07D12F4A002111704FF42E
:1038D0008012C3F8002170BD4FF48012BDE8704023
:1038E000C3F80021FFF712BF1368274D591E11605E
:1038F0007BB91C4A012111611C4AD2890A441D4925
:103900000A6019490A6842F002020A602B701D4BD6
:10391000DDE71A4C40F21B13C4F800321B4B1A6847
:103920001B4B10781B6898471A4BC4F804351A4B88
:103930001A4A1A600B491A4A084802232B700123BD
:103940000B60127803FA02F2C0F80425D1F8442182
:10395000002AC0D02360BEE7B409002000F0014077
:10396000B809002000A00040A8090020900900200C
:10397000E8090020AC090020680E0020001000407B
:10398000BC09002000E100E0330D00208C0900207C
:10399000140A0020B20F0020B00900200D350000ED
:1039A0003F0D0020194B684620F00701D3F8002195
:1039B0008D4601B54AB1D3F80423D00741BF002298
:1039C000C3F8002103F510431B68104BD3F80C21FA
:1039D00032B1D3F80423110744BF0022C3F80C21ED
:1039E000D3F8102152B1D3F80423D20606D5002211
:1039F000C3F81021064B1B6803B19847FDF7E2FF9F
:103A0000FEF7CAF8BDE80140854670470010004047
:103A1000B0090020684620F007018D4631B51B4BE8
:103A200082B01B6801934FF02003EFF3118183F301
:103A30001288BFF36F8F164B00221D681A6081F346
:103A40001188BFF36F8F134C2368ABB1E90703D51F
:103A50008DF8002068469847AA0705D501238DF800
:103A600000306846236898476B0705D502238DF818
:103A70000030684623689847FDF7A4FFFEF78CF8EE
:103A800002B0BDE831408546704700BFAC09002058
:103A9000A8090020A40900200F4A1048136810B597
:103AA0000F4C43F001031360A36A3BB90D4B002296
:103AB0001A704FF48013C0F8003110BDFFF7C0FD3D
:103AC000A36A002BF2D04FF48013BDE81040C0F879
:103AD0000031FFF71BBE00BFA809002000E100E095
:103AE000E8090020330D00200146C807F8B506D5C7
:103AF000384803F0CAFF384B00BAC3F81C058A07E0
:103B000006D5364803F0C1FF334B00BAC3F8200591
:103B10004B070AD53248304903F0B7FFC1F82405F6
:103B2000304803F0B2FFC1F828054FF08053D3F8B6
:103B30003021082A4CD1D3F83431052B48D82A4AF1
:103B4000D35C002B44D0234B284A5B7C052B224BB3
:103B5000D3F81C15D3F8200518BF4FF07F42114051
:103B60000240914234D1D3F82425D3F82465D3F808
:103B70002455D3F824C5D3F82845D3F82805D3F81D
:103B80002815D3F82875D2B2C6F307239A4214D069
:103B9000C5F307439A4210D0B2EB1C6F0DD0E3B2CD
:103BA0009A420AD0C0F307239A4206D0C1F30743D2
:103BB0009A4202D0B2EB176F0AD1074AD2F8743793
:103BC00023F0807323F0010343F08073C2F874374D
:103BD000F8BD00BF54000020001000405800002035
:103BE0005C00002060000020188C00000000FFFF37
:103BF000684B2DE9F74FD3F8002422B903B0BDE894
:103C0000F04FFFF7CFBCDFF89091D9F82820072AB2
:103C1000F4D8D3F80814614CDFF88481D3F80C543D
:103C200034F8212098F8010095424FEA50034FEAFA
:103C3000810540F08D80621992789A420CBF002273
:103C4000012201920CBF012200226619B370514B70
:103C5000D3F80C6424F8216052498E7C16B1C00759
:103C600040F1958040F21B10C3F800020F784E4ED1
:103C7000002F00F08380012F41D14C48D3F808A4D5
:103C8000836ADFF82CC1002B6FD0DFF828E15EF8E3
:103C90002A10002969D0484FD1F800B0C7F800B009
:103CA00004EB050B9BF803B0BBF1000F10D07AB901
:103CB0000A71013B89684EF82A108362002B4BD0B1
:103CC00001B109683D4A3960136843F0010313608C
:103CD000D7F800A0DCF800206319BAF1000F3DD03E
:103CE0000121D9709AF8000090473968344811F8DA
:103CF000052B327003F09DFC98F801307370314B46
:103D000005221A70234BD3F80824C3F82C25C3F8D6
:103D100004652D4B2D4A1A60019BB3B11D4BD3F89E
:103D20000804D9F82830072B0FD82C44C0B2A1784A
:103D3000FFF7A0FC48B1214A136843F00403136065
:103D4000234B4FF48012C3F8002103B0BDE8F08F7D
:103D500001220192002278E71146B3E783F803A01D
:103D60005046904786F800A0C6E763190027DF7029
:103D70003846DCF8003098473770BDE70C4B3846C2
:103D80001B68984798F8003033707770B7E7FFF7F3
:103D900009FCC1E700100040BC090020EC0C002029
:103DA000680E002090090020B20F0020E8090020D2
:103DB000140A00206C0900208C090020A8090020AA
:103DC000B40F0020330D0020B0090020F9350000A9
:103DD00000E100E0124B13481A68134B10B5C3F80A
:103DE0000825124B00241C70114B21461C70FFF754
:103DF0007FFB202203F028FC082221460D4803F017
:103E000023FC0120FDF794FD0A20FDF791FD14200D
:103E1000FDF78EFD084B0322C3F8002210BD00BF42
:103E2000B4090020EC0C002000F00140330D00200C
:103E3000320D0020340D0020001000402DE9F04725
:103E40000546002800F0F3807A4E33780BB1FFF777
:103E5000C1FF794B794C6A681A60294614222046C2
:103E600003F0E7FB0025764B76481D6020222946AB
:103E700003F0EAFB08227448294603F0E5FB734B84
:103E8000A27AC3F80C25FFF715FB2378704A002BA4
:103E900000F0BD80012B01D16E4B1360617A6B4B3A
:103EA000012900F0BE80022900F0B38049B94FF625
:103EB000FF71C3F83C156849C3F838150221C3F8EF
:103EC00034151368607C9847604B644964484FF030
:103ED000E732C3F81C254FF04332C3F82025614A6E
:103EE000C3F82425604AC3F82825FFF701FB0A46DA
:103EF00000230133082B40F8042B02F12502F8D1EE
:103F00005A4A5B4800230133082B40F8042B02F186
:103F10002502F8D10022574B14460132082A1960B5
:103F20001C719C6001F1250103F10C03F5D1524B8A
:103F3000524DDFF84CA1DFF84C91DFF84C81534F24
:103F4000C3E90044C3E90244C3E90444C3E90644A5
:103F50000423C5F8103540F20223C5F80845504641
:103F6000C5F8003201F0C0F8484601F0BDF84046FF
:103F700001F0BAF8384601F0B7F82A4644499AF8F1
:103F8000000001F0B7F8434A434999F8000001F0F6
:103F9000B1F8424A424998F8000001F0ABF82B4AC8
:103FA0004049387801F0A6F89AF8003099F80020D6
:103FB000012505FA02F205FA03F3134398F80020ED
:103FC00005FA02F213433A7805FA02F21343364A2D
:103FD0002946136028460022FDF7CCFC002202216E
:103FE0001420FDF7C7FC002202210A20FDF7C2FCC5
:103FF0002846FDF78DFC1420FDF78AFC0A20FDF70A
:1040000087FC2A4B35701C700020BDE8F087284BD8
:1040100043E74FF6FF71C3F83C150F49C3F8381555
:1040200045E7FF21C3F83C1540F20711F6E76FF0B2
:104030001500EAE7320D0020A409002090090020B5
:10404000A8090020EC0C0020340D002000100040D6
:10405000140A00205D340000211001008A0E0020A7
:10406000E8090020E743C323A363E313400D0020C6
:10407000BC0900200C0900206C09002000A00040B1
:104080003D0D00203C0D00203E0D00203F0D002086
:104090000011004010A0004004110040101000402A
:1040A00040A1004044A10040B4090020330D00208D
:1040B00089340000484B1B782DE9F0470446002B5B
:1040C0007CD0002800F0848003785A1E1F2A79D8FB
:1040D000424F3A7812B97A7C9A4273D3404DAB6A18
:1040E000072B72D86378072B72D84FF02003EFF3B9
:1040F000118883F31288BFF36F8F7E78E6B92B6A3D
:10410000252255F82300214603F093FA6178354AB9
:10411000535C013303F0030353542B6A6178515C01
:1041200055F823200133072B98BF1E4611712E62CC
:10413000AB6A0133AB622BE02B4A00239246117924
:1041400009BB0C265E430AEB0609012389F80430FB
:10415000C9F80810252221465AF8060003F069FA2A
:10416000627820498B5C013303F003038B5462783F
:104170005AF80630895C19711C4951F82230B3B9DC
:1041800041F82290D4E70133082B02F10C02D6D17A
:1041900088F31188BFF36F8F78783B7C184304D184
:1041A000134B1B7863B9FFF7B1FA002008E01A46F9
:1041B0009B68002BFBD1C2F80890B9E76FF00C00A8
:1041C000BDE8F0876FF07900FAE76FF00B00F7E7D2
:1041D0006FF01500F4E700BF320D002090090020B9
:1041E000E8090020340D00200C0900206C09002093
:1041F000330D002038B51C4B1B7863B370B31B4CD8
:10420000A36A73B34FF02003EFF3118583F3128891
:10421000BFF36F8F636A54F823100A7802704B78EB
:10422000437091F9023083700B790371CB78C370BE
:104230000531053003F0FDF9636A0133072B88BFB0
:1042400000236362A36A013BA36285F31188BFF375
:104250006F8F002038BD6FF00C00FBE76FF015008A
:10426000F8E76FF03C00F5E7320D0020BC090020B4
:1042700038B51B4B1A7802F0FF056ABB194C1A4976
:104280004FF0FF32C4F80823184AC4F810511160E7
:1042900040F21712C4F800221022C4F804230422AA
:1042A0001A70134B9A7CC4F83025DB7CC4F80835AF
:1042B000104BC4F80435104B0222C3F880210120B2
:1042C000FDF726FB0123C4F804512846C4F8085121
:1042D000C4F81051636038BD6FF00F00FBE700BFFA
:1042E000330D002000100040F13B0000B009002019
:1042F00054000020680E002000E100E010B50B4BD8
:104300001B78014603F0FF044BB958B1042208485A
:1043100003F08FF90120FFF7E7FB204610BD6FF097
:104320000F00FBE76FF01500F8E700BF330D00202A
:104330005400002010B50B4B1B78014603F0FF041E
:104340004BB958B10422084803F073F90220FFF773
:10435000CBFB204610BD6FF00F00FBE76FF01500A0
:10436000F8E700BF330D00205800002070B5114B56
:104370001B780C4603F0FF05ABB9B8B1082915D876
:104380000D4E0A46014606F1080003F052F9347456
:10439000FF22C4F1080442FA04F40420B474FFF7C5
:1043A000A3FB284670BD6FF00F00FBE76FF0150010
:1043B000F8E700BF330D0020540000204FF0805379
:1043C000D3F83021082A06D1D3F83431052B02D88E
:1043D000024AD05C70470020704700BF248C000068
:1043E000024AD2F80034002BFBD0704700E00140B5
:1043F00010B503F071FB40B14FF080430022C3F8C9
:104400000C21C3F81021C3F8382503F065FB002800
:1044100046D04FF08052604BD2F80414C3F82015F8
:10442000D2F80814C3F82415D2F80C14C3F82815D0
:10443000D2F81014C3F82C15D2F81414C3F83015A0
:10444000D2F81814C3F83415D2F81C14C3F8401568
:10445000D2F82014C3F84415D2F82414C3F8481530
:10446000D2F82814C3F84C15D2F82C14C3F8501500
:10447000D2F83014C3F85415D2F83414C3F86015C8
:10448000D2F83814C3F86415D2F83C14C3F8681590
:10449000D2F84014C3F86C15D2F84424C3F8702540
:1044A000FFF78CFF18B13D4B3D4AC3F88C26FFF750
:1044B00085FF18B13B4BFB22C3F81825FFF77EFFA1
:1044C00070B14FF080414FF08053D1F8E42ED3F813
:1044D000583222F00F0203F00F031343C1F8E43EF9
:1044E000FFF76CFF20B1304B4FF40072C3F8402649
:1044F00003F0F2FA48B14FF08043D3F80024D2071A
:1045000044BF6FF00102C3F800244FF08053D3F88A
:104510003021082A0ED1D3F83431052B02D8234A92
:10452000D35C3BB14FF01023D3F808224FF0804307
:10453000C3F858254FF01023D3F80022002A03DBDC
:10454000D3F80432002B22DA194901234FF010204E
:10455000C1F804351224FFF743FFC0F80042FFF70B
:104560003FFFC0F80442FFF73BFF0023C1F80435CA
:10457000FFF736FFBFF34F8F0E490F4BCA6802F4A7
:10458000E0621343CB60BFF34F8F00BFFDE70B4BDF
:104590000B4A1A6010BD00BF00C000400050004030
:1045A0004881030000F00040009002401E8C000093
:1045B00000E0014000ED00E00400FA056800002082
:1045C0000090D00370B501250268B2FA82F3C3F1FE
:1045D0001F035E1CDCB214D0BFF35B8F05FA03F33C
:1045E00022EA030350E8006F964204D140E8003C01
:1045F000BCF1000FF6D1BFF35B8FE5D102480C7020
:1046000070BD0248FCE700BF0000AD0B0200AD0B1F
:104610000368CB40DB0710B515D4012303FA01F181
:104620000368BFF35B8F41EA030250E8004F9C42EE
:1046300004D140E8002CBCF1000FF6D1BFF35B8F32
:10464000EED1024810BD0248FCE700BF0000AD0BF0
:104650000400AD0BF7B5044668B101282FD03049EE
:104660003048D82202F09DFF2D48D82103B0BDE884
:10467000F04002F08FBF4FF080430222C3F80823BE
:10468000C3F80401D3F804210122DA6001239C421B
:104690008DF8073014BF00250DF1070542F21077A1
:1046A0004FF08046B4B1012C2BD01F491D484FF468
:1046B0004F7202F076FF1C484FF44F71D6E74FF06F
:1046C00080430022C3F80803C3F80021D3F8002177
:1046D0005860DBE725B1D6F8183403F003032B60EC
:1046E000D6F81834DA0319D51DB19DF80730012B1F
:1046F00004D1012003F0FAF9013FD3D1012C0AD0F3
:104700000CE025B1D6F80C3403F001032B70D6F879
:104710000C34DB03E8D4054B00225A7103B0F0BD22
:104720002A8C000078830000678C00001C0A00209F
:1047300010B5044650B90A490A4840F2151202F071
:1047400030FF074840F2151102F024FF064B1A799A
:1047500022B9012205481C609A8010BD0448FCE77C
:104760002A8C0000788300001C0A00200000AD0B9A
:104770000C00AD0B08B50D4B1B7953B90C490D4816
:104780004FF4977202F00DFF09484FF4977102F051
:1047900001FF0020FDF7E0F808B9FDF7B9F84FF088
:1047A00080430022C3F8182508BD00BF1C0A002062
:1047B0002A8C0000788300002B4B1B7910B504462F
:1047C00053B92A492A484FF4B47202F0EAFE274846
:1047D0004FF4B47102F0DEFE74B1012C39D02349DC
:1047E00023484FF4D37202F0DCFEBDE810401F48AE
:1047F0004FF4D37102F0CEBE4FF08042D2F81814BD
:10480000D2F8183413F480330BD1D2F81414C9073A
:1048100010D5D2F81C349B0708D40223C2F8043305
:1048200016E001F00303012B04D01BB10020FFF7B9
:1048300011FF00234FF08042C2F818350023C2F860
:104840000431D2F804310223C2F804330123936007
:1048500010BD4FF080430022C3F80021D3F800219F
:10486000C3F804431C60F3E71C0A00202A8C0000F4
:10487000788300000A4B1B7910B5044653B90949E7
:10488000094840F2AD1202F08CFE064840F2AD112C
:1048900002F080FE2046BDE81040FFF7DBBE00BFFF
:1048A0001C0A00202A8C0000788300004FF080430F
:1048B00010B5D3F800216AB10022C3F80021D3F863
:1048C00000210122C3F80823114B587910B95A71FD
:1048D0001B6898474FF08043D3F8042172B100223F
:1048E000C3F80421D3F80421D3F81824D3F81814FA
:1048F000920704D10122C3F818259A6010BD022244
:10490000C3F80823024BBDE810401B68012018477C
:104910001C0A0020034B083033F81000C0F340108D
:10492000704700BF6C000020044B083033F81000C3
:1049300010F01C0018BF0120704700BF6C00002061
:10494000034B083033F81000C0F34000704700BF3D
:104950006C00002070B500F108030C4C34F81330E3
:10496000DA0505460E4607D5C3F3432304EBC3021D
:1049700054F8333052689847A3682BB1E268314647
:104980002846BDE87040184770BD00BF6C0000208D
:10499000194A083010B532F81030D9051DD5C3F3C7
:1049A000432123F4F85322F8103002F110040020C0
:1049B00034F8023B13F4807F03D0C3F343239942BE
:1049C0000BD001303028F3D1002342F831300B48AE
:1049D000FFF71EFE0A4B984200D110BD09490A4854
:1049E0004FF4997202F0DDFDBDE8104005484FF428
:1049F000997102F0CFBD00BF6C000020E0000020E4
:104A00000000AD0B9B8C00007883000038B5024697
:104A1000FFF780FF094C02F1080540B134F815306A
:104A200007495B0B03F5A273002041F823001046F1
:104A3000FFF7AEFF002324F8153038BD6C000020CE
:104A40000060004010B50446006803F056F850B905
:104A50001149124840F2292202F0A3FD0E4840F20B
:104A6000292102F097FD236803F01F025B092260F1
:104A70000CD0012B0DD00849084840F22E2202F03C
:104A800090FD054840F22E2102F084FD4FF0A04039
:104A900010BD0348FCE700BF738B00007883000063
:104AA00000030050F0B5044685B017461D46F1B12D
:104AB00003F034F810B14D4805B0F0BD0B46CDE918
:104AC00000008DF80E008DF80F000DF10F020DF1B2
:104AD0000E01204603F031F8454A04F1080132F88E
:104AE000113023F0020343F0010322F8113097B193
:104AF00020463E787A68FFF723FF80B1002ADAD19A
:104B00003B4A04F1080132F8113023F01C0343EA58
:104B1000860322F81130002D3DD13648CCE7344FC2
:104B200004F1080C37F81C1021F02001C904C90C4D
:104B300027F81C10002AE3D0032EBCD813782EB916
:104B40002D4A03F5A27142F82160D9E79A0002F1DB
:104B5000804202F5C04241EA4331D2F8100520F00C
:104B60000300C2F81005D2F8100520F44F3020F4ED
:104B70004070C2F81005D2F810E5200200F47C5015
:104B80004EEA064E40EA0E0041F0200127F81C10C4
:104B9000C2F81005B4E7D5E900672046FFF7F8FE34
:104BA000002EBAD0124D2B689E4204D16B689F42F2
:104BB00001D100220AE011480DF10F01FFF702FDBB
:104BC0000C4B98427FF478AF9DF80F2045F8326087
:104BD00005EBC20308345F6035F8143043EA422322
:104BE00043F4807325F8143097E700BF0400AD0B41
:104BF0006C0000200000AD0B00600040E0000020D1
:104C0000F0B5044685B0154621B3FFF799FE20B9EB
:104C10002046FFF77FFE00285ED12046FFF784FE86
:104C200010B14B78012B57D001238DF80F300023A2
:104C3000CDE900134A1C8B1C20460DF10F0102F038
:104C40007CFF264A04F1080132F8113043F00303D7
:104C500022F8113015B9224805B0F0BD2046FFF703
:104C60006FFEC8B31D4E95F800C004F108076146F9
:104C700036F81700890020F0200001F18041C004BF
:104C800001F5C041C00C26F817000023C1F810350B
:104C90006A78002ADFD0D1F81035AD7823F4991363
:104CA00023F4F853C1F81035D1F810E5230203F4CA
:104CB0007C53120402F4403243EA0E0313432A05E4
:104CC00002F4801240EA4C30134340F0200026F8F2
:104CD0001700C1F81035BEE70248BDE76C000020A0
:104CE0000000AD0B0400AD0B014BC3E9020170479E
:104CF0006C00002038B504460D4651B90C490D48EA
:104D000040F2352202F04DFC094840F2352102F014
:104D100041FC2046FFF7FEFD38B1074B0748083439
:104D200033F814305B0B2B7038BD0548FCE700BF2F
:104D30009B8C0000788300006C0000200000AD0B0D
:104D40000400AD0B38B50F4C94F87850BDB9602213
:104D5000294604F1100002F077FC0620FCF7D8FD8C
:104D6000094B0A48C3F87C51D3F87C214FF000422C
:104D7000C3F80423012384F87830636738BD0448FE
:104D8000FCE700BF6C000020006000400000AD0B9D
:104D90000500AD0B034B93F87800003818BF0120D5
:104DA000704700BF6C00002001460148FFF730BC8F
:104DB000DC00002001460148FFF704BCDC000020B5
:104DC000F7B504460D46FFF7AFFD50B92F493048FF
:104DD00040F2DF3202F0E5FB2C4840F2DF3102F016
:104DE000D9FB2046FFF796FD2A4E04F1080718B3B9
:104DF0002046FFF7A5FD0246F0B936F81700410B33
:104E0000084602F096FE00F1804303F5C0431A60A5
:104E10001B688B0003F1804303F5C043D3F81025D2
:104E200042F00102C3F8102525B11B4A01238B4033
:104E3000C2F8043303B0F0BD55B91449144840F228
:104E4000EE3202F0AEFB114840F2EE3102F0A2FB6E
:104E500036F81730C3F38203042B12D0052B12D07F
:104E600001A80194FFF7EEFD019BD0F81015D94081
:104E700001F001010231204603B0BDE8F04002F02C
:104E8000A7BE0321F7E70221F5E700BF9B8C0000D6
:104E9000788300006C0000200060004008B50246E6
:104EA000FFF738FDC8B11046FFF74AFDA8B9083230
:104EB0000D4B0E4933F8123001225B0B9A409B00D8
:104EC00003F1804303F5C043C1F80823D3F810254C
:104ED00022F00302C3F8102508BDBDE808400021F8
:104EE000104602F075BE00BF6C000020006000405C
:104EF0000E4B00F1080213B533F81230DB070446FD
:104F000011D5FFF7CBFF2046FFF780FD01A80194E4
:104F1000FFF798FD019B03F5E073022240F8232080
:104F2000034802B010BD0348FBE700BF6C0000203F
:104F30000000AD0B0400AD0B2DE9F04F654B66484A
:104F40006649002687B0012234461D6835B1D0F885
:104F5000045315421EBF1C601D68164304338B4268
:104F60004FEA4202F1D1DFF87081D8F87C31002B92
:104F700000F093804FF0A043D3F820250492C3F8AB
:104F80002025D3F820280592C3F8202800270DF10A
:104F900010097B0100934FF0010A4BE0009B504A3F
:104FA00094FAA4F4B4FA84F41C4404F10803E0086D
:104FB00032F81330039404F007020AFA02FC19F8DD
:104FC000002022EA0C02990809F8002003A8C3F384
:104FD00082050191FFF736FD039A019902F5E0720F
:104FE0004B0750F82220AB46C2F3014229D559465F
:104FF0002046D5B2FFF7AEFC03A80394FFF722FDCD
:10500000039B03F5E07350F82330C3F301439D4243
:1050100007D10021204602F0DBFD2946204602F0A0
:10502000D7FD03A80394FFF70DFD039B0AFA03F3D2
:10503000C0F8203559F82740002CAFD1CFB901274F
:10504000A7E7022A0CBF032102212046019202F0A9
:10505000BFFD032D04D0019A022A06D1012DE0D113
:1050600059462046FFF776FCDBE7032AD9D1022D0B
:10507000F5E7C8F87C41D8F87C311A494FF0A043D5
:10508000D3F820250492C3F82025D1F820350593C4
:10509000C1F8203513437FF479AF012416B907B066
:1050A000BDE8F08F96FAA6F3B3FA83F304FA03F29D
:1050B0009B0003F1804303F5C04326EA0206D3F8C0
:1050C0001005D3F81015C0F30520C1F30141FFF717
:1050D00041FCE3E7006100400060004020610040C7
:1050E0006C0000200003005001460148FFF76ABA37
:1050F000E800002070B5044615460E46B1B1AAB1CD
:1051000001238340C3F3130393B10B4B014618688B
:1051100002F0EEFC70B1E00000F1804000F5F830E4
:10512000C0F81065C0F81455044870BD0448FCE789
:105130000448FAE70448F8E7E80000200000AD0B57
:105140000900AD0B0400AD0B0500AD0B10B5144C00
:10515000144A1549032323616361144BA261E3617F
:105160004FF4806323620023A3626362E3622266DA
:105170000F4A6266E01D1022A2662367E36663673A
:1051800002F03DFABFF35F8F0A49204602F037FA7A
:10519000BFF35F8F2023A371BFF35F8F10BD00BFEC
:1051A000240A0020D98C0000E28C0000E40F0020CB
:1051B000D40F0020E68C00000E4B70B553F8204051
:1051C000013053F82060A64200D870BDD4E9003504
:1051D0002846984765B1EB6830B10028B8BF404217
:1051E000FF28A8BFFF2018705A7842F001025A70B9
:1051F0000834E8E734810000F7B504460E464FF066
:105200002003EFF3118783F31288BFF36F8F01F050
:10521000CDFB042C96BF1E4B1E4B53F824300022AE
:10522000054600921C482246452102F0C8F93EB1CD
:10523000F369C3F308031BB11848452102F0BFF915
:1052400035B1284602F00BFD034608B1027802B9D9
:10525000134B14482A46452102F0B1F93146204645
:10526000FEF7F2F8042C08D10F4910488F2202F003
:1052700098F90D488F2102F08DF987F31188BFF35B
:105280006F8F284603B0BDE8F040FCF739BF00BF80
:105290004C810000ED8C0000038D0000308D00007B
:1052A000FB8C0000568D0000738D00007883000099
:1052B00008B50A4B012202201A70FFF77DFF01F0AA
:1052C000ADFE0320FFF778FF00F0F0F9FBF75AF985
:1052D000034A137B23F00103137308BDE41300207A
:1052E0008002002008B50348034A0021121A02F088
:1052F00090FC08BDE0010020E813002070B50023F9
:1053000086B00122CDE90423134E144D01930F22E0
:10531000CDE902321249182303FB005506EBC016F3
:1053200004464FF4B07000FB04110E4B00954FF48F
:10533000A072304600F062F9737B0B482C7523F0A5
:10534000040373734FF4026303FB04041C44EE6014
:105350006C6006B070BD00BF00020020CC0A0020C7
:1053600020180020F15700008019002080B52D4B37
:10537000A6B083F308882C4D2C4E6B692C4F43F458
:10538000007300246B61E02385F82230EC772C76E3
:105390006C76AC7685F820406B6A43F4E0236B6250
:1053A00085F82340FCF720FEFCF766FA4FF0FF3348
:1053B000AB62EB62FCF784FFFCF7B8FE40F201132E
:1053C000ADF8243006ABB360CDE91F44229402F05F
:1053D00015FC2046FFF7F0FE0120164DFFF7ECFE0E
:1053E00001F09AF9144BF5610593012313490094D8
:1053F000CDE903434FF480623B46CDE901442846A2
:1054000000F0FCF86A7B064622F0040228466A7324
:1054100000F084FE2046FFF771FF3A4631462846E9
:10542000FCF784FBA021002000ED00E0CC0A002066
:10543000B152000080020020DF8D00000014002027
:10544000F8B5144C144D154EAC4208D914483146E9
:105450003D2202F0A6F83D21304602F09BF8AC4216
:1054600001D30020F8BDD4E9041242EA010313F08D
:1054700003030BD1E068A361834201D12034E3E749
:10548000A76917600133A2610A44F5E76FF01500C0
:10549000E8E700BF9001002090010020E78D0000A8
:1054A000788300002DE9F74304460D4690461F46D9
:1054B00000F108064FF02003EFF3118983F31288FF
:1054C000BFF36F8F304600F06DF940B91F49204897
:1054D0008E2202F066F81D488E2102F05BF83046FD
:1054E00000F07EF9A369C3B12B601B68A361E36977
:1054F0000133E3610024304600F062F940B91349FA
:105500001348B92202F04DF81048B92102F042F8D0
:1055100089F31188BFF36F8F13E058EA070203D1B4
:105520002B606FF00B04E6E72246CDE90087494681
:10553000304600F057FF044618B9064B9B685B697C
:105540002B60204603B0BDE8F08300BFA7840000B5
:1055500078830000CC0A00202DE9F04104460D4676
:1055600000F108064FF02003EFF3118783F3128850
:10557000BFF36F8F304600F015F940B91D491E4842
:105580008E2202F00EF81B488E2102F003F83046FE
:1055900000F026F9D4F81880B8F1000F0FD120469A
:1055A00001F07CF858B12A684261C0F8788000F0B8
:1055B000B5FD39463046BDE8F04100F0B9BB2B6877
:1055C000A2691A602B68A361E369013BE36130467D
:1055D00000F0F6F840B907490748B92201F0E1FFA9
:1055E0000448B92101F0D6FF87F31188BFF36F8F0C
:1055F000BDE8F081A7840000788300002DE9F04326
:1056000085B00446DDF83C80B8F10F0F0F46154613
:10561000994632D1214B994533D104F15803C4E95D
:105620001633109B237307350423637325F0070596
:1056300007F12003C4E919350E9B84F80E8002930C
:1056400005F120080D9B019300260C9B0093B844A4
:105650004B46C4E90666A660E673E66642463946EE
:105660002046FCF731FA0E4B66659B6803B11B6F51
:105670002367404605B0BDE8F08308F110031E2BF8
:10568000CBD90849084840F2FF1201F08AFF0548CB
:1056900040F2FF1101F07EFFBFE700BFF1570000AD
:1056A000CC0A00200C8E0000788300002DE9F04326
:1056B000374C384D384F87B0AC4226460AD9374868
:1056C000394640F2D52201F06CFF40F2D521384630
:1056D00001F060FFAE4204F130041BD300F05EFB2A
:1056E0002B4C2D4EDFF8B480DFF8B490AC420AD9D1
:1056F000314640464FF43D7201F053FF4FF43D7187
:10570000304601F047FFAC4220D307B0BDE8F0437C
:1057100000F068BF54F8043C059354F8103C04931F
:1057200054F8143C039354F8183C029354F81C3C6E
:10573000019354F8203C009354E90C0154E90A23E6
:10574000FFF75CFF54F8303C5E65B5E7636A5A1CAE
:105750000FD023EAE3734FF4004240F2E730002118
:10576000C3FB020151EAC333276804D1384600F075
:105770000BFD3034BAE74FF47A720023FAF7C0FC1D
:1057800002460B4607F11800494601F00DFAF0E712
:1057900090010020900100200C8E00007883000012
:1057A0000D620000006838B1044B1B7D00F003005F
:1057B000C01A18BF0120704701207047CC0A002092
:1057C000064903468A68087D1968024391424FF0F2
:1057D000000004BF18600120704700BFCC0A002001
:1057E000024A117D93680B4303607047CC0A002086
:1057F000124C08B5A36893F90E30002B08DA104953
:105800001048272201F0CDFE0D48272101F0C2FEED
:105810000D4D4FF02002EFF3118382F31288BFF396
:105820006F8F01F0ABFA2B78A06113B9FCF72AF85F
:10583000EFE7FBF77DFE0028EBD1F7E7CC0A00206D
:105840002F8E000078830000E41300202DE9F3413F
:10585000044617461E46EFF3058343B15F4960488F
:10586000652201F09EFE5D48652101F093FE4FF038
:105870002003EFF3118883F31288BFF36F8F594829
:10588000FFF790FF40B9584955488E2201F089FE34
:1058900055488E2101F07EFE5248FFF7A1FFE368D4
:1058A000524AD3B1A0689168884233D057EA0603C0
:1058B00032D14C48FFF784FF40B94B494848B922E0
:1058C00001F06FFE4848B92101F064FE88F31188A9
:1058D000BFF36F8F6FF00F0019E0916891F90E1010
:1058E000404821610133E3609368A360FFF768FFDC
:1058F00040B93D493A48B92201F053FE3A48B9212E
:1059000001F048FE88F31188BFF36F8F002002B0CA
:10591000BDE8F0812169E3E791F90E1090F90E30AE
:105920009942A8BF19466FF07E029142B8BF114656
:105930008B423EDD02F09CF90546CDE90076294810
:105940002246414600F04EFD0028E0D04FF02003F3
:10595000EFF3118683F31288BFF36F8F2148FFF7AF
:1059600021FF40B920491E488E2201F01AFE1E4830
:105970008E2101F00FFE1B48FFF732FF23682169DB
:105980009C420AD04BB193F90E309942A8BF1946F8
:105990006FF07E039942B8BF1946A06802F068F91B
:1059A00000B945B10F48314600F0C2F96FF00A0066
:1059B000ADE70025C1E70B48FFF702FF40B90A49F0
:1059C0000748B92201F0EDFD0748B92101F0E2FDD9
:1059D00086F31188BFF36F8FE8E700BF508E000099
:1059E00078830000F40A0020A7840000CC0A00207D
:1059F00038B50446EFF3058343B143494348C72212
:105A000001F0CFFD4048C72101F0C4FDA368002B81
:105A100074D03F4DAA68934273D1E36843B93A49C1
:105A20003A48DF2201F0BDFD3748DF2101F0B2FD29
:105A3000EFF3058343B137493448FD2201F0B1FD4E
:105A40003448FD2101F0A6FDAB68DB7B012B08D1BA
:105A500030492E48FE2201F0A4FD2E48FE2101F01F
:105A600099FDAA68D37B013BD373E368012B05D969
:105A7000013BE36000F0B6FD002038BD4FF020038D
:105A8000EFF3118583F31288BFF36F8F2248FFF77E
:105A900089FE40B921491D488E2201F082FD1F4830
:105AA0008E2101F077FD1C48FFF79AFE2169A0685E
:105AB00002F0DEF8204600F0F1FDA06058B190F948
:105AC0000E2022610022826700F028FB124829463E
:105AD00000F02EF9CEE7E0600F48FFF771FE40B905
