:020000040100F9
:10000000100B0021951A0001CD640001691A00014E
:10001000691A0001691A0001691A00010000000054
:10002000000000000000000000000000A915000111
:10003000691A00010000000051150001691A000151
:1000400029160001291600012916000129160001B0
:1000500029160001291600012916000129160001A0
:100060008D3500012916000129160001291600010D
:100070002916000129160001291600012916000180
:100080002916000129160001291600012916000170
:10009000F935000129160001291600012916000171
:1000A00029160001316800012916000129160001F6
:0800B0002916000129160001C8
:1000B80053B94AB9002908BF00281CBF4FF0FF31C7
:1000C8004FF0FF3000F00CB8ADF1080C6DE904CE2C
:1000D80000F008F8DDF804E0DDE9022304B0704719
:1000E800704700BF2DE9F04F07468C460846099E29
:1000F80015463C461946002B40F0C5808242B2FAAC
:1001080082F746D94FB1C7F1200E00FA07F3BD4078
:1001180024FA0EFEBC404EEA030C4FEA15481FFABB
:1001280085FE220CBCFBF8F908FB19C309FB0EFA83
:1001380042EA03439A4528D9EB1809F1FF3004D263
:100148009A4502D9A9F102002B44A3EB0A03A4B2F1
:10015800B3FBF8F208FB123302FB0EFE44EA034439
:10016800A64514D92C1902F1FF3303D2A64501D9AB
:10017800931E2C44A4EB0E0443EA00401EB1FC403D
:10018800002334607360BDE8F08F4846DDE713460E
:10019800F0E702B9FFDE87BB831A01214FEA154E4B
:1001A800AAB2200CB3FBFEFC0EFB1C330CFB02F8BE
:1001B80040EA0343984562D9EB180CF1FF3004D2AA
:1001C800984502D9ACF102002B44A3EB0803A4B272
:1001D800B3FBFEFC0EFB1C330CFB02F244EA0344A7
:1001E800A2424ED92C190CF1FF3304D2A24202D9F3
:1001F800ACF102032C44A41ABEE7C7F1200CBD40A1
:1002080000FA07F320FA0CF84FEA154E24FA0CFC12
:10021800BC404CEA0302ABB2B8FBFEFC110C0EFB6F
:100228001C800CFB03F941EA0040814523D92818BA
:100238000CF1FF3104D2814502D9ACF10201284406
:10024800A0EB090092B2B0FBFEFC0EFB1C000CFBFD
:1002580003F842EA004398450FD9EB180CF1FF3236
:1002680004D2984502D9ACF102022B44A3EB08034F
:1002780042EA014192E76146E2E76246F6E76046F4
:10028800A3E76346B7E7834205D90EB1C6E9007014
:100298000021084677E7B3FA83F181B9834201D395
:1002A800BA420AD8BC1A60EB030301209C46002E10
:1002B80067D0C6E9004C002165E70846F7E7C1F1B9
:1002C800200C8B4002FA01F522FA0CF420FA0CFB00
:1002D80027FA0CF28F401C4300FA01F34FEA144945
:1002E80013431FFA84FE1A0CBBFBF9F809FB18BB71
:1002F80008FB0EFA42EA0B4292453ED9A21808F1D1
:10030800FF3004D2924502D9A8F102002244A2EBA0
:100318000A029BB2B2FBF9F809FB182208FB0EFE91
:1003280043EA024296452AD9A21808F1FF3304D2BB
:10033800964502D9A8F10203224443EA0040A2EB01
:100348000E02A0FB05939A42CE46984602D306D1E8
:100358004F4504D20138B9EB050E63EB040886B1AA
:10036800B7EB0E0362EB080707FA0CFCCB40CF4053
:100378004CEA0303C6E900379DE74046C7E7434612
:10038800DBE73146FFE6000010B5037888B0012BA3
:100398000AD0022B0BD0002B51D14421294808B098
:1003A800BDE8104006F079B844212748F7E7274C04
:1003B800204603F081FC00283ED1237B442106938C
:1003C800E37A23480593A37A0493637A0393237A01
:1003D8000293E3790193A37900936379227806F075
:1003E8005CF8A17901F00700431E032B94BF00239A
:1003F800012311F0060F1DD0052894BF0022012209
:100408000338032894BF002001201B0743EA8073A8
:1004180081F004010F48C1F3800143EAC173816888
:1004280043EA42728C684FF07041234608B0BDE839
:10043800104018470122E3E745210748AFE708B015
:1004480010BD00BF106D0001266D0001440400219D
:100458003B6D0001146A0001996D00011FB5002071
:1004680001F006FF40B94521124806F016F86FF072
:100478000504204604B010BD002301930393012313
:100488006946029300F024FB041E05DA2246452142
:10049800094806F002F8ECE7029B9B07FCD1039C95
:1004A8001CB1224645210548F3E74421044805F0DC
:1004B800F4FFDEE7BC6D0001E16D0001FF6D000196
:1004C800236E00014FF0E7324FF0C23330B58BB0E6
:1004D800CDE90123114A03AB10685168104D03C3DD
:1004E8001C460FCD0FC42B680E4A2360012305A8B4
:1004F8008DF8153006928DF8263003F007FA58B9B2
:1005080001A803F069FC38B902A803F087FC18B900
:10051800082103A803F0A4FC0BB030BD396E00011C
:10052800A06B0001910300012DE9F04F49214E48CD
:1005380085B005F0B2FFFFF791FF0446002840F0B0
:100548008F804A4806F0F9F930B94521484805B086
:10055800BDE8F04F05F0A1BF464E474DDFF81C91AE
:10056800B6F80680376896F804A048F4003BBB68E4
:1005780002937B6803933B69019308F03003302BA7
:100588000AD1294648464FF42E7205F078FF4FF4F9
:100598002E71284605F06CFF08F00603042B0AD1DB
:1005A800294648464FF4307205F069FF4FF4307120
:1005B800284605F05DFF0123039A03FA0AF312683F
:1005C80013420CD14FF4357229464846039305F07F
:1005D80056FF4FF43571284605F04AFF039B019AF0
:1005E80018F0010F1268514614BF134322EA03039F
:1005F800019A38461360029B5A461B68984703467F
:1006080038B1224645211E4805B0BDE8F04F05F037
:1006180044BF0134042C06F10806A1D1FFF752FFAC
:10062800024630B14521174805B0BDE8F04F05F046
:1006380034BF4921144805F030FF144803F09CFAF0
:10064800024610B145211248EEE74921114805F04C
:1006580024FF03F07BFB024610B145210E48E3E777
:1006680005B0BDE8F08F00BF426E0001146A0001BA
:10067800666E0001C86B00017F6E0001B06E00015C
:10068800C86E0001F06E0001176F0001BC00002168
:10069800346F00014F6F0001756F000138B5446871
:1006A800054604F00304032C816002D02CB100201D
:1006B80000E0006800236B6038BD45220449054806
:1006C80005F0DDFE4521024805F0D2FEEFE700BF48
:1006D8009A6F0001B06E00010B6801330B60014B8B
:1006E8001B68184700000021014B1860704700BFC5
:1006F8000000002107B50B4600210246019103487E
:1007080001A900F069FA03B05DF804FBE1060001F5
:100718002DE9F74FB0F81CA004461AF0080F9346CD
:100728001CD001290CBF4AF0100A4AF0200AA0F890
:100738001CA004F1140004F0B7FB40B99249934897
:10074800B92205F09CFEB9218F4805F091FE8BF384
:100758001188BFF36F8F03B0BDE8F08F8C4FDFF8BF
:100768002C820AF0070A022906D1204605F0C6FDA8
:100778000028DED0012863D1D4F81890A38BB9F1F2
:10078800000F19DA0026256823F00703C4E900667C
:1007980043F00103A383A38B03F0070252450092A1
:1007A80003D0A268002A40F0F58015B9002E00F0A9
:1007B8002F814FF0000AEFE003F00702511F0129D3
:1007C80020D8002123F00703062A25689BB2C4E934
:1007D80000110AD13DB12946E28B0968013292B273
:1007E8000029FAD1E28343F002032046A38305F0EF
:1007F80085FD06460028CED0A38B43F02003A383B3
:100808000026C8E7042A0DD123F007039AB2204630
:10081800A28305F073FD054680B142F02002002551
:10082800A283EDE740F21B123946404605F027FE49
:1008380040F21B11384605F01BFE00252E46AAE79C
:10084800032831D1BAF1000F0AD0394640464FF497
:10085800AB7205F014FE4FF4AB71384605F008FE94
:10086800236853B93946404640F2571205F007FE4F
:1008780040F25711384605F0FBFD23691E6856B94A
:10088800394640464FF4AD7205F0F9FD4FF4AD71AD
:10089800384605F0EDFDA38B23F0070343F006036C
:1008A8000025A383A94676E704282ED1BAF1020FC2
:1008B8000AD03946404640F25D1205F0E0FD40F2AC
:1008C8005D11384605F0D4FDE38B53B139464046F7
:1008D8004FF4AF7205F0D3FD4FF4AF71384605F011
:1008E800C7FD23695E6856B93946404640F2611231
:1008F80005F0C5FD40F26111384605F0B9FDA38B3E
:1009080023F0070343F00403CAE705282ED1BAF100
:10091800010F0AD0394640464FF4B27205F0AFFDD8
:100928004FF4B271384605F0A3FD236853B9394630
:10093800404640F2651205F0A2FD40F265113846C6
:1009480005F096FD23699E6856B9394640464FF42E
:10095800B47205F094FD4FF4B471384605F088FD83
:10096800A38B23F0070343F0050399E7002540F222
:100978006B123946404605F082FD40F26B1138464D
:1009880005F076FD2E468DE7DF6F0001B06E0001A1
:10099800BD6F00014FF0010A43F00803A38304F17F
:1009A80014031846019304F07FFA40B940463149D0
:1009B800B92205F064FDB9212E4805F059FD8BF3E5
:1009C8001188BFF36F8FBAF1000F30D1002D40D1DD
:1009D80016B120462849B0474FF02003EFF3118B9A
:1009E80083F31288BFF36F8F019804F04FFA40B970
:1009F800404620498E2205F042FD8E211D4805F013
:100A080037FD019804F05EFAA38B23F00803A38353
:100A1800A38BDA0625D5012123F01003A383B4F8AC
:100A28001CA00AF0070A00297FF49DAE81E6A168A0
:100A38000029CBD0D1F800A04B462046D1F804B00D
:100A4800009AD847BAF1000FC0D05146DAF800A092
:100A5800F2E729464B462046009A2D6805F06AFCC5
:100A6800B4E713F020011EBF23F020030221A38363
:100A7800D5E700BFDF6F0001850A0001F8B504461D
:100A88000D4600F114064FF02003EFF3118783F3AE
:100A98001288BFF36F8F304604F0F8F940B90A495D
:100AA8000A488E2205F0EBFC8E21074805F0E0FC91
:100AB800304604F007FA3A462046A5610121BDE810
:100AC800F840FFF725BE00BFDF6F0001B06E0001E0
:100AD8002DE9F04704460F4605F042FC051E54DB9D
:100AE80004F114094FF02003EFF3118A83F31288FD
:100AF800BFF36F8F484604F0C9F940B93349344809
:100B08008E2205F0BCFC8E21304805F0B1FC484629
:100B180004F0D8F94FF6FF71E38BA28B8B4202F0F9
:100B280007064AD0022E1FD135464FF0010801337F
:100B3800E383484604F0B8F940B924492448B92267
:100B480005F09DFCB921214805F092FC8AF3118833
:100B5800BFF36F8FB8F1000F17D000233246394624
:100B6800204605F0E7FB10E0930701D0062E0FD1D1
:100B780000233B606368EBB9C4E900773546F6B9F2
:100B8800524602212046FFF7C3FD2846BDE8F087FC
:100B9800052E17D0012E0AD00E490D4840F2C91271
:100BA80005F06DFC40F2C9110A4805F061FC6FF0D0
:100BB800040504E01F606760E0E76FF00A054FF086
:100BC8000008B6E76FF08505F9E700BFDF6F0001A1
:100BD800B06E0001BD6F00012DE9F04F8B469246C3
:100BE8001C46002591B002909AF8000008B92846E2
:100BF8005FE325280AF1010707D05946029B984769
:100C08000028C0F25683013512E2182200210AA8F2
:100C180005F087FC9AF80130252B78D00022104681
:100C2800964694461646394617F8013B2B2B00F09A
:100C38009D8000F29480202B00F09B80232B00F0F5
:100C48009B802EB19DF8306046F004068DF8306028
:100C5800BCF1000F05D09DF8306046F008068DF80D
:100C68003060BEF1000F05D09DF8306046F01006E8
:100C78008DF8306028B19DF8300040F020008DF8E4
:100C880030002AB19DF8302042F040028DF8302023
:100C98009DF8302002F04400442803D16FF38612F7
:100CA8008DF830209DF830202A2B42F080028DF8F4
:100CB80030207BD19DF831204B1C42F001028DF889
:100CC80031201A782E2A0CBF012100219DF83120ED
:100CD80061F341028DF8312074D15A782A2A6AD0FA
:100CE80000210A260133184610F8012BA2F130071B
:100CF800092F40F28E809DF830200E91C2F34000FB
:100D080040EAD17161F341028DF830205AE00AF1CE
:100D180002078DF833309DF83130D90740F1498109
:100D280054F8049BB9F1000F07DA9DF83020C9F197
:100D3800000942F004028DF830205A0740F1428140
:100D480054F8048BB8F1000F80F241819DF83130DE
:100D58006FF341038DF831304FF0FF3837E12D2B19
:100D68000CD0302B7FF46DAF01225CE74FF0010C03
:100D780059E74FF0010E56E7012054E7012652E7E4
:100D880033460CFB0202303A1E4616F8010BA0F15E
:100D98003007092FF4D9994293D09DF830100D925D
:100DA800D20F62F341018DF830108AE70B4600221A
:100DB8004FF00A0CE8E79DF83120023342F00402B4
:100DC8008DF831201F4617F8012B6C2A41D025D801
:100DD800682A2BD06A2A46D04C2A4CD01F4617F8CE
:100DE800012B9DF83130782A8DF8332000F2D98014
:100DF800572A4DD8412A03D0453A022A00F2D18019
:100E080004229DF8323062F302038DF83230012358
:100E18009EE006FB01210346303964E7742A26D098
:100E28007A2ADBD106229DF831300DE05A78682AFB
:100E38009DF8312006D1012161F3C6028DF83120D9
:100E48009F1CCCE71346022262F3C6038DF83130AB
:100E5800C5E75A786C2A9DF8312001D10421EBE7C7
:100E680013460322F0E705229DF83130ECE707220C
:100E78009DF83130E8E7BDF8303023F4F04323F033
:100E8800020343F4804343F00203ADF83030A6E791
:100E9800A2F15801202900F2848001A050F821F025
:100EA8006D0F0001AB0F0001AB0F0001AB0F00018C
:100EB800AB0F0001AB0F0001AB0F0001AB0F00013E
:100EC800AB0F0001090E0001AB0F00016D0F00010F
:100ED8002D0F0001090E0001090E0001090E000185
:100EE800AB0F00012D0F0001AB0F0001AB0F00018C
:100EF800AB0F0001AB0F0001750F00016D0F000172
:100F0800910F0001AB0F0001AB0F0001910F000121
:100F1800AB0F00016D0F0001AB0F0001AB0F00011B
:100F28006D0F000101209DF8321003F0780360F383
:100F38000201402B8DF8321002BF9DF8301041F0AD
:100F480001018DF83010632A31D1003B18BF01230D
:100F58009DF83020C2F340010B4363F341028DF842
:100F68003020D8E602209DF83210DEE703219DF8F4
:100F7800322003F07803A3F1400061F302024342F8
:100F88008DF832204341E3E703219DF8322013F026
:100F9800780F61F3020214BF012300238DF8322079
:100FA800D6E79DF8303043F001038DF83030002348
:100FB800CEE79DF93020002AACBF4FF0FF39DDF8AD
:100FC8003490BAE69B077FF5C7AEDDF8388000237A
:100FD800CDE90D339DF832309DF8311003F0070349
:100FE800012BC1F3C30138D1CB1E042B22D8DFE873
:100FF80003F003090921210054F8043BDA17CDE96D
:101008000A3206E0073424F00704F4E80223CDE9A5
:101018000A239DF8303013F0030656D03B4652465B
:101028005946029805F00EFA0028C0F2428105449C
:10103800BA46D9E554F8043B01294FEAE372CDE9F1
:101048000A3205D19DF828300A9300230B93E0E774
:101058000229DED1BDF92830D0E7022B23D1CB1EDF
:10106800042B13D8DFE803F0030A0A121200002346
:101078002268201D0A920B930446CAE7E01D20F05F
:101088000700F0E80223CDE90A23F5E754F8043B0A
:1010980001290A934FF000030B93D3D00229B8D14A
:1010A800BDF82830D0E7042B09D1E31D23F007034E
:1010B80003F10804D3E90023CDE90A23A9E7032BA8
:1010C80004BF54F8043B0A93A3E79DF8330078283B
:1010D800AED8622822D825283FF48FAD5828A7D14A
:1010E800DDE90A010DF1260300930CAA04AB05F013
:1010F80063F98246B8F1000F0DF126000CDB9DF86C
:101108003020A0EB0A036FF3861298458DF8302043
:1011180002D9A8EB03030D9380463DE063381528F8
:1011280086D801A252F820F0B11100011512000171
:10113800391000013910000139100001391000017F
:101148001512000139100001391000013910000191
:10115800391000016F1200013D1200014112000117
:1011680039100001391000018911000139100001FE
:101178003D12000139100001391000013D12000133
:10118800B8F1000FDDF828A00ADB4146504605F00B
:10119800B4F900260AEB0008BAF1000F0CD147E7B2
:1011A800504605F0A3F9F4E700260A9B0DF1100A52
:1011B8008DF810300DF11108A8EB0A0306B10133C0
:1011C8009DF83220D00668D5023352060D9948BFE3
:1011D8000E9A0B4448BF9B18B9F1000F76DD9DF8B5
:1011E8003020A9EB0309C2F38003039353076DD49E
:1011F800500661D546B159463046029B98470028AB
:1012080057DB039B01351E46302356E01E070FD4DB
:1012180013F0100618BF2026DDE90A23002BBFF6BD
:101228005FAF524263EB43032D26CDE90A2357E70C
:101238002B26F1E7002653E70A9840B30DF1260361
:101248000093002104AB0CAA05F0B6F8BDF83230C3
:10125800824603F0EF0343F4F04343F01003002603
:10126800ADF8323046E70A9B07293FF6E1AEDFE8E2
:1012780001F00C04060C08080C0C1D70D8E61D8043
:10128800D6E6EA17C3E90052D2E61D60D0E6DFF8D9
:10129800C8A006460AF105088EE7110748BF0133C2
:1012A80093E7184603935946029B98470028039BE7
:1012B80004DA11B0BDE8F08F20234D444A46002AD5
:1012C800A5EB090109F1FF39EBDC0D4636B15946AA
:1012D8003046029B98470028EBDB01359DF83230F9
:1012E800D90601D41A0706D559463020029B9847DB
:1012F8000028DEDB01359DF83230DB0607D559467C
:101308009DF83300029B98470028D2DB01350D9EDB
:101318002E44731B002B16DC43465246594602984E
:1013280005F090F80028C4DB0544A944A9EB05039F
:10133800002B7FF77DAE59462020029B9847002856
:10134800B7DB0135F2E759463020029B9847002861
:10135800AFDB0135DDE700BF0C7000014FF0200264
:10136800EFF3118382F31288BFF36F8F0121044AD0
:10137800C2F8401583F31188BFF36F8F00207047C0
:101388000000084120B1034B800143F001031847D6
:10139800704700BFC06B0001014910220A60704706
:1013A80010ED00E072B6404080F31188BFF36F8FF4
:1013B800BFF34F8F30BF62B6BFF36F8F704700BF68
:1013C80072B6494081F3118820BF80F3118862B654
:1013D800704700BF37B505460C46C9B18B68104841
:1013E8000093D1E90023452105F057F863694521A9
:1013F8000093D4E903230B4805F04FF84521E2692F
:10140800094805F04AF84521A269084805F045F859
:101418002146284603B0BDE8304003F047BB00BF73
:10142800167000014A7000017E7000019270000180
:1014380043B2002B08DB012200F01F0002FA00F083
:10144800024A5B0942F82300704700BF00E100E050
:1014580043B2002B0DDB012200F01F0002FA00F05E
:101468005B09044A203342F82300BFF34F8FBFF3D0
:101478006F8F704700E100E0054B420953F82220C6
:10148800012300F01F0003FA00F01040704700BF6E
:1014980000E100E038B54C1C072C054608D90D4979
:1014A8000D48572204F0EBFF57210A4804F0E0FFEB
:1014B8006BB2002BACBF03F16043084B4FEA4414F6
:1014C800E4B2ABBF03F5614305F00F0583F80043B1
:1014D8005C5538BDC5700001B06E000114ED00E028
:1014E80030BFFFF7FDBF00BF08B5084B084A23F01F
:1014F8007F039360BFF34F8FBFF36F8F03F04CFBF5
:1015080004F068FC00F0B6FA03F086FB0000000166
:1015180000ED00E0094A0A49936809685867996725
:1015280008494B6843F080534B60002383F31188CC
:10153800BFF36F8F9368986F704700BFE403002173
:10154800F86C000100ED00E013498A684FF03000A4
:101558001044EFF3098C80E8F01F202080F31288F4
:10156800BFF36F8F0D4F4FF000668A698A603E6047
:10157800506F0023536780F3118802F1300090E820
:10158800F01F8CF3098802F1000004B504F0A1FFF4
:10159800BDE8044070470000E403002104ED00E0CA
:1015A8001EF0040F0CBFEFF30880EFF30980816988
:1015B80011F8021C0229FFD001B504F07BFF01BD20
:1015C80042F8203C009B0B4942F81C3C019B21F04F
:1015D800010142F8183C029B42F8081C42F8143CEE
:1015E8004FF0807342F8043C0023203A02654367B9
:1015F800704700BFAD630001084B9860436E83F3EA
:101608000B88104681F30988002163B681F311889D
:10161800BFF36F8F0022002304F0C4FEE40300210F
:1016280001B5EFF30580A0F110004FEAC0000449AE
:10163800014409C99847BDE801400249084700002C
:101648005C6A000151160001044B99689869884248
:1016580003D003494FF080520A607047E403002129
:1016680004ED00E038B5214C4521214804F015FF70
:10167800A36A9D0103D545211E4804F00EFFA36A05
:10168800DC0103D545211C4804F007FF174DAC6A5F
:1016980014F4801404D04521184804F0FEFE0224F6
:1016A800AB6A180303D54521154804F0F6FE0F4D23
:1016B800AB6A590303D54521124804F0EEFEAB6A24
:1016C8009A0303D54521104804F0E7FE074DAB6A9D
:1016D800DB0303D545210D4804F0DFFEAB6A204645
:1016E8006FEA03436FEA1343AB6238BD00ED00E0D5
:1016F800FB70000118710001307100014F71000189
:101708007E710001A1710001CB710001EA71000135
:1017180070B5204C06460D461F48452104F0BDFE15
:10172800A36ADB0403D545211C4804F0B6FEA36A6E
:101738001C0503D545211A4804F0AFFE154CA36AD1
:10174800980510D54521174804F0A7FEA26BA36A97
:10175800190408D54521144804F09FFE1EB1A36A58
:1017680023F40043A3620B4CA36A5A0503D5452111
:101778000E4804F092FEA36ADB0503D545210C4808
:1017880004F08BFE0020034A936A43F47F4393627C
:10179800287070BD00ED00E01A720001357200017A
:1017A8004B72000163720001817200019B7200019B
:1017B800BB72000170B5274C06460D4626484521E8
:1017C80004F06BFEA36AD80603D54521234804F02C
:1017D80064FEA36A190703D54521214804F05DFE7C
:1017E8001C4CA36A9A0710D545211E4804F055FEE3
:1017F800626BA36A1B0608D545211B4804F04DFE01
:101808001EB1A36A23F08003A362124CA36AD8070F
:1018180003D54521154804F040FEA36AD90602D431
:10182800A36A9A070ED50B4B9B6ADB060AD51049AB
:10183800104840F24F1204F022FE40F24F110C48BB
:1018480004F016FE0020034A936A43F0FF039362F4
:10185800287070BD00ED00E0D8720001F37200013D
:101868004B7200012B730001487300016373000180
:1018780087730001B06E00012DE9F041654B002728
:10188800D3F804808AB0C8F3080587F31188BFF33A
:101898006F8F02F07F43B3F17F4F07D102F00C0343
:1018A800082B10D145215C4804F0F7FD40F2FB32CB
:1018B8005A495B4804F0E3FD40F2FB31574804F015
:1018C800D7FD002606E012074EBF0E460646012742
:1018D800002EEBD00024EB1E8DF80740092B00F2F8
:1018E8008780DFE803F0057A7E62858585858582B5
:1018F800484D45214B4804F0D0FD8DF80740EC6A6F
:1019080014F0020405D04521474804F0C6FD002420
:1019180006E0EB6A002B1DDA4521444804F0BDFDC2
:101928009DF807309BB92022314602A804F0EEFD4D
:10193800099B002F69D0C3F3080222B96FEA532329
:101948006FEA43230993204602A9FFF743FD0AB033
:10195800BDE8F081EB6A5B0036D54521344804F0D8
:101968009CFDB36933F8022C4DF602739A4206D1F6
:10197800452132682F4804F090FD3468D0E795F887
:10198800283033B101200DF10701FFF713FF04469A
:10199800C6E795F829302BB101200DF10701FFF7B3
:1019A800B7FEF4E76B8D9BB213B1FFF75BFEEEE772
:1019B8001A4940F2CD221A4804F061FD40F2CD21C7
:1019C800164804F055FDABE7144940F2D1221448FB
:1019D80004F055FD40F2D121F2E700200DF1070196
:1019E800D3E700200DF10701D9E7452112488CE71C
:1019F800124918F4F87F124A124808BF0A46A5F19E
:101A08001003452104F049FD81E723F4FF7323F017
:101A1800010397E700ED00E0EF7300018773000111
:101A2800B06E00011F7400013B7400016174000175
:101A38007474000198740001B9740001C173000145
:101A4800D6730001E2740001044B5A6942F0100297
:101A58005A615A6942F480625A61704700ED00E0A9
:101A6800EFF30880EFF3098101B57246FFF704FF31
:101A780001BD00BF002320210348C21801331E2BDB
:101A880082F80013F9D1704700E100E0002080F3EC
:101A98001488BFF36F8F002080F30A8880F30B88C7
:101AA80004F086FF00200E490860BFF34F8F0D48F1
:101AB80080F3088800F03EF8202080F311880A4857
:101AC8004FF40061401880F30988EFF31480022175
:101AD800084380F31488BFF36F8FFFF705FD0000FC
:101AE80094ED00E0100B0021100C0021BFF34F8F84
:101AF8000549064BCA6802F4E0621343CB60BFF3A2
:101B08004F8F00BFFDE700BF00ED00E00400FA05BD
:101B1800002318460649D1F89020C2F307229342C1
:101B280000D17047C1F89830C1F8A0000133F6E73A
:101B380000ED00E010B572B6002484F31388FFF7B7
:101B4800E7FF23464FF0FF300B4A03F12001013332
:101B5800102B42F82100F8D100234FF0FF3003F199
:101B680060010133102B42F82100F8D162B6BFF3AF
:101B78004F8FBFF36F8F10BD00E100E0084B9B68EB
:101B880083420BD1EFF3058343B1064B5A6842F009
:101B980080525A605A6A22F400425A6204F086B8A7
:101BA800E403002100ED00E01FB5094C094A234673
:101BB8000121094800F02CF900230393074B012168
:101BC800E41A01A80193029400F03EF904B010BD94
:101BD8000000012100000021E86B0001F80000214D
:101BE80010B50B680C7A23F01F0204F01F031A4388
:101BF800CB68640923F01F03054943EA440343F013
:101C08000103C1F89800C1F89C20C1F8A03010BDAC
:101C180000ED00E030B54B680C6885B00A894D8945
:101C28000094013B24F01F04234402F01F0242EAFF
:101C3800451223F01F03072804468DF80820039354
:101C480009D902464521064804F027FC6FF015041F
:101C5800204605B030BD6946FFF7C2FFF8E700BF70
:101C6800FE7400012DE9F04F8946144606464FF0F0
:101C78000008584D85B0C84527DAD6F804A0BAF14F
:101C8800000F44D0BAF11F0F18D91AF01F0F15D141
:101C9800D6F800B01BF01F0F10D1584604F01DFCF9
:101CA80007460AEB0B00013804F017FC874210D0F6
:101CB8006FF015073A464521474802E0424645215C
:101CC800464804F0EAFB6FF01504204605B0BDE86D
:101CD800F08F17F1160FEDD0BC42EBDDC5F8987008
:101CE800D5F89C10C5F89870D5F8A03021F01F01E0
:101CF80043F01F0BD6E900321A44994202F1FF3A29
:101D08001DD1D34507D13146F8B2FFF783FF08F15B
:101D180001080C36AFE73146C5F89870D5F89C3005
:101D280022F01F0203F01F031A43C5F89C20E0B2FB
:101D3800FFF770FF10F1160FC5D0441CE7E7013B11
:101D4800D345E0B223F01F03C5F8987008D1D5F841
:101D5800A020314602F01F021343C5F8A030E7E780
:101D6800D5F8A01001F01F010B43C5F8A03031468B
:101D7800FFF750FF10F1160FA5D0C5F89870D5F8E9
:101D88009C209DF808300BF1FF3B62F304038DF8AB
:101D98000830D5F8A0309DF808205B0863F3471297
:101DA800D6E900310B44009323F01F0301305B4454
:101DB800A3EB0A03C0B223F01F0307288DF80820FD
:101DC800039303D90246452105487AE76946FFF798
:101DD80007FFB2E700ED00E0517500012975000129
:101DE800FE7400010522044BC3F89420BFF34F8F03
:101DF800BFF36F8F704700BF00ED00E0BFF35F8F48
:101E08000022024BC3F89420704700BF00ED00E0A9
:101E180010B50A4C2278FFF725FF207016300CD138
:101E28000749084840F2111204F029FBBDE81040A8
:101E380040F21111024804F01BBB10BD69040021D7
:101E480079750001B06E00012DE9F74F304D8A46D3
:101E580006464FF00008AB462E4FD04502DB03B0D4
:101E6800BDE8F08FD6F80490B9F1000F4AD0316878
:101E78000846019104F031FB0199044609EB010081
:101E8800013804F02AFB84424FF01402224B13D08D
:101E98006FF0150302FB08F84BF8083040F22112E6
:101EA8001E491F4804F0EBFA40F221111B4803B009
:101EB800BDE8F04F04F0DCBA14F1160F2C60EDD039
:101EC8001978A142EADD02FB08B0C7F89840C7F8C4
:101ED8009840D7F89C4000F10801007B64F30400A7
:101EE8000871D7F8A0000C79400860F347140C710A
:101EF800D7F89C1021F01F016960D7F8A01021F0D5
:101F08001F01296108F1010814350C36A5E700BF47
:101F18002002002100ED00E069040021797500012C
:101F2800B06E000138B51D4D2C68082C0DD94FF442
:101F3800A4721B491B4804F0A2FA19484FF4A47173
:101F480004F096FA4FF0FF3038BD0020FFF756FF37
:101F5800154B164AC3F8C020844217D1144B1C7085
:101F6800FFF740FF104BD3F89030C3F30723082B3B
:101F78000AD00B490B484FF4D67204F080FA4FF49C
:101F8800D671074804F074FA0020DDE7696801EBB0
:101F98000011FFF725FE0130DEE700BFF46B0001FA
:101FA80079750001B06E000100ED00E0AAFF440061
:101FB80069040021014B1860704700BF040000212C
:101FC80037B540230C460A490093411A4911054682
:101FD8002346084A084804F0C3FA011E05DA2846D1
:101FE800234603B0BDE83040184703B030BD00BFFA
:101FF80044020021D7650001FC69000138B5CCB264
:10200800012C054608D908490848792204F037FA0E
:102018007921054804F02CFA0C23296904FB0314E0
:10202800A06C00F0070038BDBF750001B06E00015C
:10203800F8B5CCB2012C0546174606690AD91849E5
:10204800184840F24D1204F01AFA40F24D111448A3
:1020580004F00EFA4FF02003EFF3118183F3128896
:10206800BFF36F8F0C2202FB04639B6C13F0C00359
:1020780001D09F4211D10123002002FB0466B36402
:1020880081F31188BFF36F8F30B90C23696803FBA4
:102098000414636898470020F8BD4FF0FF30EFE75D
:1020A800BF750001B06E000170B50D4606490446C3
:1020B800411A491140220548FFF7BAFF2B4601464D
:1020C8002046BDE87040184744020021FC69000121
:1020D80070B50022012104460520FFF7DBF90F48FF
:1020E80001F0D4FF0E4B984215D101F0F1FF26699B
:1020F8000C49304604F043F900280BDB012524691C
:102108000849B56404F1200004F039F9002801DB1E
:102118000020656570BD6FF00400FBE765210001D4
:102128000000AD0B4C6C000101460C2300224B4310
:10213800084870B5C4184833D4E9105618442264C6
:1021480004F0FBF92DB132462B46BDE87040024839
:10215800184770BD44020021FC690001012808B538
:1021680006D0032808D0A0B90F4B9B6C5B0719D188
:10217800BDE80840FFF7D8BF0C4940F25E220C4882
:1021880004F07DF940F25E21BDE80840074804F0FC
:102198006FB9064940F26222054804F070F940F22E
:1021A8006221F1E708BD00BF44020021BF750001AC
:1021B800B06E000108B54FF02003EFF3118183F3EF
:1021C8001288BFF36F8F114A136843F0020013F0AF
:1021D800010310600BD00E4AD2F80C34D2F80C244C
:1021E80013F0010303D00B4804F0A7F9012381F38E
:1021F8001188BFF36F8F23B1BDE808400020FFF7B7
:1022080093BF0120BDE8084001F088BF9C0200216F
:10221800005000418C0200211FB500220123CDE9A6
:1022280002236B46084ACDF800D0CDF804D004F05C
:10223800C7F9002805DB4FF480420023684602F006
:10224800A1FE05B05DF804FBF5650001074BD3E876
:10225800EF2F22F00201C3E8E01F0028F7D1D307CF
:1022680002D4012001F0BCBF704700BF9C020021CE
:10227800024BC0B203EB4010704700BF440200217C
:102288002DE9F041012206464249D1E8EF3FC1E875
:10229800E02F0028F9D19BB93F4940484B60CB60FB
:1022A8008A60FEF715FC00280ADA3D493D484FF4DC
:1022B800087204F0E4F84FF40871394804F0D8F8CB
:1022C80086B3731E012B52D8012E06D1364BD3F894
:1022D8001C3403F00303022B24D004F03CFB044617
:1022E80018B9324B1B78002B4ED14FF02003EFF377
:1022F800118783F31288BFF36F8F01242A4DDFF80B
:10230800B080D5F81834D5F81824D2030CD503F0CA
:102318000303022B01D0012E06D124B387F31188C1
:10232800BFF36F8FBDE8F081C4B13846FFF748F8B6
:10233800D5F81835DBB2012BE3D1D5F80421002AF2
:10234800DFD00022C5F80421D5F804210222C5F8FF
:1023580018252022C8F88021AB60D2E7002121206F
:1023680003F06EFCE4E70223C5F80433DAE70C490E
:102378000C4840F2322204F082F8BDE8F04140F205
:102388003221074804F074B80222074B0746C3F805
:102398000823B3E7A00200213402002164020021CF
:1023A800BF750001B06E0001005000410C0700210C
:1023B80000E100E008B50848084B186004F0BDFAD1
:1023C80038B10748FFF7F6FD0548FEF78DF90020FC
:1023D80008BD6FF01200FBE7446A0001A402002167
:1023E800ED2300010A2838B50446074D04D12868B2
:1023F80083680D215B68984728688368E1B25B6849
:102408009847204638BD00BFA402002170B5164683
:102418000C46056941B91E491E48242204F02FF8CC
:1024280024211B4804F024F8636843B91849194863
:10243800252204F024F82521154804F019F86B68C2
:102448005BB100229C4212D12368A96852B9A1420B
:102458006B6000D1AB60002323606EB9002070BDB3
:102468000B46EFE7A142136008BFAA60F3E71968BB
:102478001A460029F4D13EB16B68A86823606C60E5
:102488000028EBD1AC60EAE76FF01500E7E700BF82
:102498001C760001B06E00017FB5406801F01F0492
:1024A800057BB2F5001F44EA45144FF0000504D13E
:1024B800204602F0B1F9002050E0B2F5800FCDE9D6
:1024C80002554DD1B3F1007F0CBF042305238DF8CD
:1024D8000830836823FA01F111F0010151D1B2F1FA
:1024E800A07F4ED1660946D04FF6FF73012E08BF74
:1024F800194604F01F05E940CA070AD429492A48A1
:1025080040F2292203F0BBFF40F22921254803F0BD
:10251800AFFF66B1012E31D02249234840F22E2266
:1025280003F0ADFF40F22E211E4803F0A1FF1F4B20
:10253800803553F82530DB0723D40DF107052946EC
:10254800204602F097F81A4B984219D1284602F013
:10255800F1F8184B984213D06FF00B0004B070BD1F
:10256800B3F1C06F05D0B3F1007F0CBF0223012384
:10257800ADE70323ABE74FF0FF31BAE70E4BD7E7E0
:10258800039500232046194602AA01F049FF094B8A
:10259800984204D10121204602F0D2F88BE76FF06F
:1025A8000400DBE749760001B06E000100058C41AC
:1025B8000400AD0B0000AD0B00088C4110B502F013
:1025C800A9F8044668B902F07DF8084B98420AD188
:1025D8002146074802F048F8224605210A20FEF75E
:1025E80059FF002010BD6FF00400FBE70000AD0BA1
:1025F800FD2500012DE9F843430903D0012B28D01C
:10260800BDE8F883144F3B695C68002CF8D00126BC
:1026180000F01F002568DFF84480DFF8449086400A
:10262800A3681E4210D0636843B941464846452214
:1026380003F025FF4521404603F01AFFD4E9013293
:102648002146384632409847002DD9D02C462D686F
:10265800E6E7044FD7E700BF146A00011C760001C3
:10266800B06E00012C6A00012DE9F043476801F0C3
:102678001F053B7B0E46144685B045EA4315CAB98B
:1026880002A9284601F0F6FF0446284602F0EEF8B3
:10269800494B984204D06FF0040005B0BDE8F083C0
:1026A800844205D19DF8080002F03EF8A042F2D11C
:1026B8000020F2E74FF000090DF103013046CDE9A3
:1026C800029901F0D7FF4B4680464946284602AAA0
:1026D80001F0A6FE384B984202D06FF01500DCE7F7
:1026E800804503D19DF8030002F01EF8A3034FD5DF
:1026F80040F2066340F20622234093423AD00CD8B7
:10270800062B15D004D89BB1022BE6D104230FE089
:10271800B3F5007FE1D101230AE040F2024293427F
:102728002AD0B3F5C06F29D0B3F5806FD5D1022375
:102738008DF8043084F48033C3F30043E0068DF849
:1027480005304CBF0323C4F3401321038DF8063032
:1027580016D501217B6801FA06F69E6000222846FC
:1027680001A901F009FF144B984214BF6FF015003E
:10277800002092E70723DBE70523D9E70323D7E700
:10278800620341BF01217B6801FA06F6DE60E5E7D6
:10279800E3064FF000034CBF0324C4F340141A4669
:1027A800284601A98DF8044001F03AFE024B9842F0
:1027B8003FF47EAF91E700BF0000AD0BF0B54B7959
:1027C800012B28D0032B23D110278B79032B1FD162
:1027D800CD790DB1012D1BD10A79012A1DD0022A0C
:1027E8001FD0AAB914460B684668B3F5164F366869
:1027F8006ED033D8B3F5165F6DD01CD8B3F5966F8D
:102808006BD010D8B3F5967F6AD0B3F5167F6AD02F
:102818006FF085005BE00027D7E74FF480740E2245
:10282800E1E70024FBE7B3F5166F5FD0B3F5965FD9
:10283800EED1394B3EE0B3F5E14F5AD007D8B3F5A6
:10284800615F58D0B3F5964FE2D1344B32E047F68A
:10285800122C6345DCD14FF400032BE0B3F5613F44
:102868004BD013D8B3F5963F4AD009D84DF6C02CB3
:10287800634547D0B3F5614FCAD14FF46B0319E0F4
:10288800B3F5E13FC4D14FF0EB7313E0B3F5612F1B
:102898003BD009D8DFF888C0634539D0B3F5E12FBC
:1028A800B6D14FF0E86305E0DFF878C06345AFD1F3
:1028B8004FF0805300692C433A43C6F8243522432D
:1028C800031DC6F86C2503C983E803000020F0BD8A
:1028D8004FF41D03EEE7144BECE74FF49E23E9E7B2
:1028E8004FF4A033E6E74FF41C33E3E74FF41D231E
:1028F800E0E70E4BDEE70E4BDCE74FF06C73D9E7F1
:102908000C4BD7E74FF46503D4E74FF07063D1E77A
:102918004FF08063CEE700BF00B0130000A04E0068
:1029280090D0030040420F000050270000C07500FF
:1029380000F03A0000903A012DE9F74307460022DB
:1029480001211320FEF7A6FD1320FEF771FD0021DB
:10295800D7F804803E69D8F80040D8F80C90C4F83D
:1029680000154846376001AA03F0CEFE051E1FDB9E
:10297800019BD9F800201979186803F002FF051E99
:1029880016DB3846311DFFF719FF054680B9D8F820
:10299800043099072BD506F1120001F071FC294B80
:1029A800984209D04521284803F077FD6FF00405C7
:1029B800284603B0BDE8F083B77C14F10C0F47F04C
:1029C8000047C4F8A0710AD12049214840F24E229C
:1029D80003F055FD40F24E211C4803F049FD012348
:1029E800C4F88C70B27C93401A4AC2F804350823A4
:1029F800C4F8003598F808305BB9C4F81031D4F839
:102A0800103106F11103C4F834350123C4F8383500
:102A18002360D8F8043010369A075CBF4FF48072F0
:102A2800C4F80423DB0644BF4FF48003C4F804331E
:102A38000023C4F84465C4F848350123A360E36063
:102A4800B6E700BF0000AD0B8A760001AE76000144
:102A5800B06E000100F00041F8B505460F46066962
:102A680003F079FF10B92C4B1B7883B94FF0200382
:102A7800EFF3118483F31288BFF36F8F686803F054
:102A8800FAFD28BB84F31188BFF36F8FEEE7642447
:102A9800686803F0F0FD70B9012003F0D1FE013C35
:102AA800F6D10021212003F0CBF8F0E784F3118858
:102AB800BFF36F8FF5E74FF02003EFF3118483F333
:102AC8001288BFF36F8F686803F0D5FD0028EDD03A
:102AD800012206F8107F69680B68C3F84465C3F8DB
:102AE80048250022C3F82021D3F82001C3F8582133
:102AF800D3F858214A68D20641BF0822C3F80025F6
:102B08004FF48002C3F8042301229A6084F31188E9
:102B1800BFF36F8FF8BD00BF0C070021012383406E
:102B280010B5DC430C4AD2E8EF1F01EA040CC2E8F6
:102B3800EECFBEF1000FF6D14FF4803202FA00F06A
:102B4800064AC2F80803BFF35F8FBFF36F8F0B42CB
:102B580014BF0120002010BDC40200210060014103
:102B68001949F8B5044622F07F450868C1E90023F1
:102B7800A5F50013101AB3F5400F22D2134B1B68AA
:102B88001A0A1B065E19124B42F10007C3E90067D7
:102B9800012603F0ABFAA30003F1824303F5B03337
:102BA800D3F84025AA420BD11EB94FF40002C3F84E
:102BB80040254FF48030074B00FA04F4C3F844432F
:102BC800F8BD0026E5E700BF10010021C80200217A
:102BD800F800002100600141E1B101230E4A834061
:102BE800D2E8EF1F1943C2E8EC1FBCF1000FF7D180
:102BF8004FF48033094A8340C2F80433084BD3E8C2
:102C0800AF3F23FA00F0C30742BF4FF48002054BE1
:102C1800C3F80021704700BFC402002100600141D1
:102C2800C002002100E100E00D4B1868010A00060F
:102C3800BFF35F8F0B4BD3F80435181841F100012F
:102C4800B3F5801F0AD2084BD3E90023904271EBF9
:102C5800030303D210F1807041F10001704700BFF7
:102C6800C802002100600141F80000212DE9F04F61
:102C780085B0164698460546FFF750FF0090FFF7C7
:102C8800D3FFB04271EB080376D2434B301A68EB9E
:102C98000101984271F100037BD2404B03EB05130D
:102CA800D3E902ABD84508BF564550D04FF480331E
:102CB80026F07F4214464FEA850905F1500709F1CD
:102CC8008249BF00AB4009F5B039BFB207F182476E
:102CD8000193D9F84005324B07F5B037D3F80415FE
:102CE800401A20F07F4021F07F4C0128C9F840C5E8
:102CF80007D1CDE90221132003F055FEDDE90221B9
:102D0800274B01F1020CA4EB0C0020F07F40B0F53A
:102D1800000F88BF64460020386038680198C3F8FF
:102D2800440324F07F40C9F84005D3F804058142E4
:102D380006D0201A023820F07F40B0F5000F19D8CD
:102D4800A41A24F07F4414EB060A48F1000B00246F
:102D580012490E982B0101EB0512C850C2E902ABCB
:102D68000F9B536028460099FFF736FF204605B0B1
:102D7800BDE8F08F2046B1E701230A4AAB40D2E80C
:102D8800EF1F1943C2E8E01F0028F8D1B246C34636
:102D9800DDE76FF01504E5E70100000100010021FF
:102DA80000600141C002002173B500244FF0FF30DC
:102DB8004FF0FF31164D174BC5F80845C3E902011E
:102DC8004FF4803302264FF48002C5F80433124BC7
:102DD8000121C5F804631620C3F880212246FEF7B6
:102DE80059FB1620FEF724FB01230C4AAB602B602D
:102DF80013600B4B0B4A0093204600230194FFF706
:102E080035FF3046FFF73CFA204602B070BD00BFE0
:102E1800006001410001002100E100E0C40200213E
:102E2800692B0001FFFF7F00354B2DE9F743D3F8ED
:102E3800042391070BD5D3F8042142B10022C3F82B
:102E48000421304AD3F804311368013313604FF07A
:102E58002003EFF3118183F31288BFF36F8F284BA0
:102E6800D3F80423D2030ED5274AD2E8EF0F20F077
:102E78000104C2E8E54F002DF7D1002837D1D3F877
:102E88004021002A33D1002381F31188BFF36F8FCB
:102E980053B3FFF7C9FE4FF02003EFF3118783F315
:102EA8001288BFF36F8F194BD3E90245A04271EB2B
:102EB80005024FF0000221D3D3E900164FF0FF3886
:102EC8004FF0FF391A604FF48032C3E902890C4B86
:102ED800C3F8482387F31188BFF36F8F21B12246C7
:102EE8002B4600200096884703B0BDE8F0830022F7
:102EF800C3F84021D3F840310123C5E71146E9E77B
:102F080000600141C8020021C00200210001002127
:102F1800431C13B520D0012820DDB0F5000F1FDABF
:102F2800441EFFF781FE0F4BD3E90013401AB0F59A
:102F3800000F28BF0024013002190B48824228BF25
:102F480002460020521809490190009143F10003FC
:102F5800FFF78CFE02B010BD0348E1E70024E0E76C
:102F6800014CDEE710010021FFFF7F00692B000103
:102F780008B5FFF759FE024B1B68C01A08BD00BF11
:102F880010010021026810B55309044629D0012B0D
:102F98004FF6FF7318BF002302F01F02D340DB0770
:102FA8000AD41249124840F2292203F068FA40F282
:102FB80029210E4803F05CFA236803F01F025B091D
:102FC80022600CD0012B0FD00849094840F22E226C
:102FD80003F055FA40F22E21044803F049FA054857
:102FE80010BD4FF0FF33D7E70348F9E749760001F2
:102FF800B06E000100058C4100088C410348452152
:1030080008B503F04AFA0020FEF770FDFD760001CE
:103018000649074BC1F81435064B5B7C5A1E064B14
:1030280043EA0243C1F81835704700BF00800041E9
:10303800060003001C00002120000001074A084B7D
:10304800C2F81435074B5B7C013B40EA034343EA73
:10305800002040F08070C2F81805704700800041D9
:10306800000101001C0000210B4B0C4A1B7AC2F81E
:103078001035042B0DD8DFE803F008030C08030013
:10308800A022074B01201A6070474FF49672044B38
:10309800F8E70020704700BF50030021008000417E
:1030A800D80300210023044AC2E908339362034A83
:1030B800C2E9083393627047A80300217C0300210A
:1030C80038B540F21313184C1848C4F80032184B9E
:1030D80000211A68174BC3F840258289823AC3F841
:1030E80044250122DA60C3F84011C3F844111A607C
:1030F800114B1D68114BC3F80455114D2D78AA408A
:10310800C3F80825C4F80C11007810B90D4B1B68DA
:1031180098470D4B0D4AC4F804350D4B1A6003222D
:103128000C4B1A7038BD00BF0080004150030021CD
:10313800D8030021009001417403002100F00041F0
:1031480077040021D4030021A005002131340001B7
:10315800700300216B04002140F2131310B50F4CCB
:103168000F4AC4F800320F4B507C1B6898470E4B2F
:10317800C4F804350023C4F8103101232361D4F8BE
:103188001031002BFBD00023C4F8103140F2171384
:10319800C4F800320123636010BD00BF0080004105
:1031A80050030021D4030021A005002140F2171389
:1031B80010B5094C094AC4F80032094B507C1B6809
:1031C8009847084B084AC4F80435084B1A6004228B
:1031D800074B1A7010BD00BF00800041500300214A
:1031E800D4030021A0050021C93600017003002185
:1031F8006B04002110B5074C074904F1080003F0DF
:10320800FCFAC1F8240504F10C0003F0F6FAC1F841
:10321800280510BD1C000021008000414FF020034C
:10322800EFF3118183F31288BFF36F8F074B9A6A0C
:10323800013A9A625A6A0132072A88BF00225A6202
:1032480081F31188BFF36F8F704700BFA803002177
:103258002DE9F0411F4B07461A780E46012ADFF880
:10326800788009D198F80030202B31D81B4A116A90
:1032780052F82120137006E0184A116A52F82120EA
:10328800597819BB1170154C1549236A54F8230055
:1032980010F8052B03F03AF9236A124A54F8235020
:1032A80001336F70D2F84825072B88BF0023AA7016
:1032B80098F801200120D2432362A36A02F0010298
:1032C80001332E71EA70A362BDE8F0815B7CD1E71F
:1032D8000020F9E750030021A00500217C0300210C
:1032E800A2050021008000410122F8B53F4B404F64
:1032F8001A60404B404E5A6A3C7853F822103F4DB2
:10330800316014B3012C3FD0336801264FF480722A
:103318003B4C5B780820C4F82C3506FA03F3C4F854
:103328003035384BDB7CC4F80835374BC4F80455C6
:10333800C3F88021FEF77CF80023C4F80431C4F8F0
:103348000831C4F810312660F8BD304B08781B6886
:10335800984731686C700B79A81C2B7011F8052BF5
:1033680003F0D4F840F21B12254BC3F800221122B7
:10337800C3F80423FA89264B1A60264B264A1A609A
:103388000222264B1A70BFE7CB7813B1BC7C84F0BD
:103398000104B3FA83F30A785B092A700A79204892
:1033A80043EA42036B7011F8052B03F0AFF8144B96
:1033B80018491A4A74B140F21B10C3F800021120D0
:1033C800C3F80403124BF8891860134B0B600223EF
:1033D800137099E740F21310C3F800021020C3F8E5
:1033E8000403104B0B600123F2E700BF6C030021BC
:1033F80050030021A80300214C030021EA06002104
:10340800008000411C00002100E100E0D4030021FD
:103418007803002170030021C93000016B040021EA
:10342800EC06002179360001434B70B51A68434B0E
:10343800C3F80825A3F5E043D3F80C11404A002946
:1034480042D0D3F80034002B3ED001213D4B3E4CF6
:10345800196123683D4D0B4323601268EB893C4E8C
:103468009B1A3C4A0B441360B36A0BB1FFF7D6FEB4
:103478002B789BB1384B1A7882B1384AD2F82C0590
:10348800374A926A072A09D85978C0B24908FFF71B
:10349800DFFE18B1236843F004032360B26A314B9E
:1034A80012B12A7C012A07D100212F4A11704FF44A
:1034B8008012C3F8002170BD4FF48012BDE870403F
:1034C800C3F80021FFF710BF1368274D591E11607C
:1034D8007BB901211B4A11611C4AD2890A441D4942
:1034E8000A6019490A6842F002020A602B701D4BF3
:1034F800DDE740F21B13194CC4F800321B4B1A6865
:103508001B4B10781B6898471A4B1B4AC4F80435A4
:103518001A4B0C491A6002232B700123184A0B60BE
:103528001278064803FA02F2C0F80425D1F84421BB
:10353800002AC0D02360BEE77403002100F00041D8
:103548007803002100900141680300215003002105
:10355800A80300216C030021A00500210080004180
:103568007C03002100E100E06B0400214C030021F2
:10357800D4030021EA060021C930000170030021AC
:1035880077040021684620F007018D46164B01B5E7
:10359800D3F800214AB1D3F80423D00741BF002251
:1035A800C3F8002103F588331B680F4BD3F80C21AF
:1035B80032B1D3F80423110744BF0022C3F80C2109
:1035C800D3F8102152B1D3F80423D20606D500222D
:1035D800C3F81021054B1B6803B19847FEF734F870
:1035E800BDE8014085467047008000417003002116
:1035F800684620F007018D4631B51A4B82B01B682A
:1036080001934FF02003EFF3118183F31288BFF386
:103618006F8F0022144B1D681A6081F31188BFF365
:103628006F8F124C2368ABB1E90703D568468DF854
:1036380000209847AA0705D5012368468DF8003071
:10364800236898476B0705D5022368468DF8003034
:1036580023689847FDF7F8FF02B0BDE8314085467A
:10366800704700BF6C030021680300216403002138
:103678000F4A10B513680F4C43F001031360A36A97
:103688000D483BB900220D4B1A704FF48013C0F857
:10369800003110BDFFF7C2FDA36A002BF2D0BDE8D0
:1036A80010404FF48013C0F80031FFF71DBE00BF73
:1036B80068030021A803002100E100E06B04002159
:1036C800684B2DE9F74FD3F8002422B903B0BDE8C1
:1036D800F04FFFF741BDDFF89091D9F82820072A6D
:1036E800F4D8D3F80814614CDFF88481D3F80C546B
:1036F80034F8212098F8010095424FEA50034FEA28
:10370800810540F08D80621992789A420CBF0022A0
:10371800012201920CBF012200226619B370514B9D
:10372800D3F80C6424F8216052498E7C16B1C00786
:1037380040F1958040F21B10C3F800020F784E4EFE
:10374800002F00F08380012F41D14C48D3F808A402
:10375800836ADFF82CC1002B6FD0DFF828E15EF810
:103768002A10002969D0D1F800B0474FC7F800B037
:1037780004EB050B9BF803B0BBF1000F10D07AB92E
:103788000A718968013B4EF82A108362002B4BD0DE
:1037980001B109683D4A3960136843F001031360B9
:1037A800D7F800A0DCF800206319BAF1000F3DD06B
:1037B8000121D9709AF8000090473968344811F807
:1037C800052B327002F0A2FE98F8013073700522C2
:1037D800304B1A70234BD3F80824C3F82C252E4AF3
:1037E800C3F804652D4B1A60019BB3B11D4BD3F888
:1037F8000804D9F82830072B0FD82C44A178C0B278
:10380800FFF726FD48B1214A136843F0040313600B
:103818004FF48012224BC3F8002103B0BDE8F08FAB
:1038280001220192002278E71146B3E7504683F857
:1038380003A0904786F800A0C6E700276319DF7049
:103848003846DCF8003098473770BDE70C4B3846EF
:103858001B68984798F8003077703370B7E7FFF720
:103868007BFCC1E7008000417C0300212404002187
:10387800A005002150030021EA060021A803002129
:10388800D40300212C0300214C03002168030021EC
:10389800EC0600216B040021B53100017003002102
:1038A80000E100E010B50024114B21461A68114BC5
:1038B8001148C3F80825114B1C70114B1C70FFF7F9
:1038C800F1FB202202F02DFE082221460D4802F0CD
:1038D80028FE0820FDF7BCFD1920FDF7B9FD1420CE
:1038E800FDF7B6FD0322084BC3F8002210BD00BF48
:1038F8007403002100F00041240400216B0400211E
:103908006A0400216C040021008000412DE9F84F71
:103918000646002800F0F8807D4D2B780BB1FFF7A4
:10392800C1FF7268314600267A4B7B4C1A602046EC
:10393800142202F0EBFD794B2022314678481E60B4
:1039480002F0EFFD08223146764802F0EAFDA27A3D
:10395800754BC3F80C25FFF787FB2378734A002BB8
:1039680000F0C280012B01D1714B1360617A6E4B5C
:10397800012900F0C380022900F0B88049B94FF648
:10398800FF71C3F83C156B49C3F838150221C3F819
:1039980034151368607C98474FF0E732624B6648ED
:1039A800C3F81C254FF04332C3F82025634AC3F8F7
:1039B8002425634AC3F82825FFF774FB614A0023CE
:1039C80011460133082B40F8041B01F12501F8D1F9
:1039D80000235D495D480133082B40F8041B01F1C1
:1039E8002501F8D100263446594B0136082E1A60B5
:1039F8001C719C6002F1250203F10C03F5D1554BB3
:103A0800554FC3E90044C3E90244C3E90444C3E988
:103A180006440423C7F810354FF00213DFF83CB111
:103A2800DFF83CA1C7F80845DFF83891C7F800323D
:103A3800584600F025FCDFF83081504600F020FCA5
:103A4800484600F01DFC404600F01AFC9BF8003088
:103A5800DFF8D4C043F00042CCF88021C7F88020BA
:103A68009AF8000040F00042CCF88421C7F8902072
:103A780099F8001041F00042C7F8C021CCF8902016
:103A880098F8002042F0004EC7F8C4E1012707FA71
:103A980000F007FA03F3034307FA01F10B4307FAAF
:103AA80002F21343314ACCF880E0394613603046BD
:103AB8000022FDF7EFFC002202211420FDF7EAFCAA
:103AC800002202211920FDF7E5FC3046FDF7B0FC85
:103AD8001420FDF7ADFC1920FDF7AAFC0020244BAB
:103AE8002F701C70BDE8F88F224B3EE74FF6FF7130
:103AF800C3F83C150F49C3F8381540E7FF21C3F850
:103B08003C1540F20711F6E76FF01500EAE700BF31
:103B18006A04002164030021500300216803002186
:103B2800240400216C04002100800041D4030021FA
:103B38001930000121100100A8030021E743C32325
:103B4800A363E313C2050021780400217C0300214C
:103B5800CC0200212C0300210090014175040021B2
:103B680074040021760400217704002174030021E5
:103B78006B04002145300001484B2DE9F0471B78C4
:103B88000446002B7CD0002800F0848003785A1E5D
:103B98001F2A79D8424F3A7812B97A7C9A4273D35D
:103BA800404DAB6A072B72D86378072B72D84FF059
:103BB8002003EFF3118883F31288BFF36F8F7E78A9
:103BC800E6B92B6A2522214655F8230002F09EFC0F
:103BD8006178354A535C013303F003035354617829
:103BE8002B6A515C55F823200133072B98BF1E46DA
:103BF80011712E62AB6A0133AB622BE02B4A0023B2
:103C08009246117909BB0C265E4301230AEB06098B
:103C1800252289F80430C9F808105AF80600214608
:103C280002F074FC627820498B5C013303F00303D3
:103C38008B5462785AF80630895C19711C4951F81E
:103C48002230B3B941F82290D4E70133082B02F1AE
:103C58000C02D6D188F31188BFF36F8F78783B7C3C
:103C6800184304D1134B1B7863B9FFF73DFB0020C1
:103C780008E01A469B68002BFBD1C2F80890B9E708
:103C88006FF00C00BDE8F0876FF07900FAE76FF08D
:103C98000B00F7E76FF01500F4E700BF6A04002196
:103CA80050030021A80300216C040021CC0200214C
:103CB8002C0300216B04002138B5224B1B78002B04
:103CC80036D0002837D0204CA36A002B36D04FF0CE
:103CD8002003EFF3118583F31288BFF36F8F636AB4
:103CE800053054F823100A78053100F8052C11F82E
:103CF800043C00F8043C11F9033C00F8033C11F8BB
:103D0800013C00F8013C11F8023C00F8023C02F0CA
:103D1800FDFB636A0133072B88BF00236362A36A34
:103D2800013BA36285F31188BFF36F8F002038BD74
:103D38006FF00C00FBE76FF01500F8E76FF03C0040
:103D4800F5E700BF6A0400217C03002138B51B4B4E
:103D58001A7802F0FF0572BB4FF0FF32184C194970
:103D6800C4F80823184AC4F81051116040F2171219
:103D7800C4F800221022C4F8042304221A70134B3A
:103D880008209A7CC4F830254FF48072DB7CC4F894
:103D980008350F4BC4F804350E4BC3F88021FDF7E6
:103DA80047FB01232846C4F80451C4F80851C4F855
:103DB8001051636038BD6FF00F00FBE76B04002102
:103DC80000800041C9360001700300211C00002159
:103DD800A005002100E100E010B50D4B01461B785D
:103DE80003F0FF046BB978B104220A4802F08EFB95
:103DF800084802F002FD084B00BAC3F81C0520462B
:103E080010BD6FF00F00FBE76FF01500F8E700BF7B
:103E18006B0400211C0000210080004110B50D4BEF
:103E280001461B7803F0FF046BB978B104220A48F5
:103E380002F06CFB084802F0E0FC084B00BAC3F83B
:103E48002005204610BD6FF00F00FBE76FF015004E
:103E5800F8E700BF6B04002120000021008000412A
:103E680070B5104B0C461B7803F0FF05A3B9B0B131
:103E7800082914D80C4E0A46014606F1080002F03B
:103E880045FBFF223474C4F1080442FA04F4B47404
:103E9800FFF7B0F9284670BD6FF00F00FBE76FF031
:103EA8001500F8E76B0400211C0000210022D30054
:103EB80003F1FF7303F58033D3F80013013107D002
:103EC800D3F800130132D3F80433202A0B60EED163
:103ED800144BD3F83021072A1AD1D3F83431023BD6
:103EE800032B0CD8104AD35C4BB1104BD3F80024E9
:103EF800D10742BF0022C3F81421C3F818210B4B85
:103F0800D3F80024D20744BF6FF00102C3F800249D
:103F1800074B1A68074BC3F84425074B074A1A6032
:103F2800704700BF0000FF011F77000100500041EB
:103F38000080FF0100600041300000210090D003A4
:103F480070B501250268B2FA82F3C3F11F035E1C43
:103F5800DCB210D005FA03F322EA0303D0E8EF6FCE
:103F6800964204D1C0E8EC3FBCF1000FF6D1E9D18C
:103F780002480C7070BD0248FCE700BF0000AD0BA2
:103F88000200AD0B036810B5CB40DB0711D4012349
:103F980003FA01F1036841EA0302D0E8EF4F9C42BB
:103FA80004D1C0E8EC2FBCF1000FF6D1F2D10248E1
:103FB80010BD0248FCE700BF0000AD0B0400AD0BCC
:103FC800F7B5044668B101282ED02C492C48D822D0
:103FD80002F055FAD821294803B0BDE8F04002F0B4
:103FE80047BA0222274BC3F80823C3F80401D3F8C1
:103FF80004210122DA6001239C4218BF002542F205
:104008001077204E8DF8073008BF0DF10705ACB1C9
:10401800012C29D01C491A484FF44F7202F02FFA8C
:104028004FF44F711848D7E70022164BC3F808031E
:10403800C3F80021D3F800215860DCE725B1D6F891
:10404800183403F003032B70D6F81834DB0309D5B2
:104058001DB19DF80730012B04D1012002F0F0FBBF
:10406800013FD4D103B0F0BD25B1D6F80C3403F02C
:1040780001032B70D6F80C34E8E700BF2377000162
:10408800B06E0001005000416077000110B5044691
:1040980050B90A490A4840F2151202F0F0F940F204
:1040A8001511064802F0E4F9064B1A7922B90122E3
:1040B80005481C601A7110BD0448FCE7237700010D
:1040C800B06E0001DC0300210000AD0B0C00AD0B4D
:1040D80008B50E4B1B7953B90D490E484FF497722A
:1040E80002F0CDF94FF49771094802F0C1F90520A3
:1040F800FDF7C2F910B90520FDF79AF90122064B20
:10410800C3F81825C3F8142508BD00BFDC03002137
:1041180023770001B06E0001005000412C4B10B510
:104128001B79044653B92B492B484FF4B47202F05B
:10413800A6F94FF4B471274802F09AF974B1012C2A
:104148003BD0244924484FF4D37202F098F9BDE8D3
:1041580010404FF4D3711F4802F08AB91F4AD2F8B1
:104168001834D2F81814C90312D4D2F81434DB075F
:1041780018D40123194AC2F818350023C2F80431AB
:10418800D2F804310223C2F804330123936010BD2E
:1041980003F00303022BEDD0012BEBD00020FFF737
:1041A8000FFFE6E7D2F81C3403F00303013B012BB1
:1041B800F4D80223C2F80433E9E70022074BC3F816
:1041C8000021D3F80021C3F804431C60DFE700BFD7
:1041D800DC03002123770001B06E0001005000418C
:1041E8000A4B10B51B79044653B90949094840F2EE
:1041F800AD1202F044F940F2AD11054802F038F969
:104208002046BDE81040FFF7DBBE00BFDC030021FD
:1042180023770001B06E0001174B10B5D3F80021C9
:1042280052B10020C3F80001D3F800210122C3F8DD
:104238000823124B1B6898470F4BD3F804218AB107
:104248000022C3F80421D3F80421D3F81824D3F8A2
:10425800181402F00302012A4FF0020103D1C3F837
:1042680018159A6010BDC3F80813044B0120BDE867
:1042780010401B68184700BF00500041DC030021B4
:1042880001460148FFF75CBE34000021034B0830AB
:1042980033F81000C0F34010704700BF3800002109
:1042A800044B083033F8100010F01C0018BF012030
:1042B800704700BF38000021034B083033F8100066
:1042C800C0F34000704700BF3800002170B50D4CA6
:1042D80000F1080334F813300546DA050E4607D511
:1042E800C3F3432304EBC302526854F833309847AE
:1042F800A3682BB131462846E268BDE870401847EC
:1043080070BD00BF38000021194A083032F810305B
:1043180010B5D9051DD5C3F3432123F4F85322F86A
:104328001030002002F1100434F8023B13F4807FAF
:1043380003D0C3F3432399420BD001303028F3D183
:1043480000230C4842F83130FFF71CFE0A4B984214
:1043580000D110BD09490A484FF4997202F08FF84C
:10436800BDE810404FF49971044802F081B800BFCD
:1043780038000021AC0000210000AD0B947700014B
:10438800B06E000138B50246FFF780FF0B4C02F112
:10439800080560B1002134F815305B0B9B0003F170
:1043A800824303F52043C3F81015C3F810151046CF
:1043B800FFF7AAFF002324F8153038BD3800002184
:1043C80010B50446006802F03DFA50B9104911488A
:1043D80040F2292202F053F840F229210C4802F059
:1043E80047F8236803F01F025B0922600CD0012BF9
:1043F8000CD00749074840F22E2202F040F840F25C
:104408002E21034802F034F8034810BD0348FCE7A6
:1044180049760001B06E000100058C4100088C410E
:10442800F0B5044617461D4685B0F1B102F01BFAF7
:1044380010B14D4805B0F0BD0B46CDE900008DF830
:104448000E008DF80F000DF10F020DF10E01204640
:1044580002F018FA454A04F1080132F8113023F045
:10446800020343F0010322F8113097B120463E7849
:104478007A68FFF721FF80B1002ADAD13B4A04F1BC
:10448800080132F8113023F01C0343EA860622F8AB
:104498001160002D3ED13648CCE7344804F10807B6
:1044A80030F8171021F02001C904C90C20F81710A2
:1044B800002AE3D0032EBCD892F800C04FEA8C0241
:1044C80002F1824202F5204226B9C2F81065C2F80C
:1044D8001065D3E7D2F8103541EA4C3123F00303D5
:1044E800C2F81035D2F8103541F0200123F44F33CB
:1044F80023F44073C2F81035D2F810E5230203F410
:104508007C534EEA064E43EA0E03C2F8103520F8F3
:104518001710B3E72046D5E90067FFF7F5FE002E30
:10452800B9D0124D2B689E4204D16B689F4201D1CD
:1045380000220AE00F480DF10F01FFF701FD0C4BB7
:1045480098427FF477AF9DF80F2005EBC20308343B
:104558005F6035F8143045F8326043EA422343F48B
:10456800807325F8143096E70400AD0B380000215D
:104578000000AD0BAC000021F0B50446164685B02E
:1045880021B3FFF799FE20B92046FFF77FFE0028E8
:1045980061D12046FFF784FE10B14B78012B5AD029
:1045A80001238DF80F3000234A1CCDE90013204663
:1045B8008B1C0DF10F0102F065F9284A04F108017E
:1045C80032F8113043F0030322F8113016B92448A9
:1045D80005B0F0BD2046FFF76FFE00283BD0002352
:1045E8001E4A04F1080796F800C032F817004FEA8F
:1045F8008C0120F0200001F18241C00401F5204126
:10460800C00CC1F8103522F81700C1F810357578BC
:10461800002DDCD0D1F81035B67823F4991323F4A3
:10462800F853C1F81035D1F810E5230203F47C5390
:104638002D0443EA0E0305F4403534052B4304F4F6
:10464800801440EA4C30234340F02000C1F8103574
:1046580022F81700BBE70348BAE700BF380000217B
:104668000000AD0B0400AD0B014BC3E9020170471C
:104678003800002138B504460D4651B90C490D489B
:1046880040F2352201F0FBFE40F23521084801F0E6
:10469800EFFE2046FFF7FAFD38B1074B083433F830
:1046A800143006485B0B2B7038BD0548FCE700BF8B
:1046B80094770001B06E0001380000210000AD0BB6
:1046C8000400AD0B38B50F4C94F87850BDB9602292
:1046D800294604F1100001F024FF0A20FCF7A8FE87
:1046E800094B0A48C3F87C51D3F87C214FF00042AB
:1046F800C3F80423012384F87830636738BD04487D
:10470800FCE700BF3800002100A000410000AD0B0D
:104718000500AD0B034B93F87800003818BF012053
:10472800704700BF3800002101460148FFF72ABC46
:10473800A800002101460148FFF702BCA80000219B
:10474800F7B504460D46FFF7ABFD50B92E492F4883
:1047580040F2DF3201F093FE40F2DF312A4801F0E7
:1047680087FE2046FFF792FD294E04F1080718B38B
:104778002046FFF7A1FD0246F0B936F81700410BB5
:10478800084602F07BF800F1824303F520431A60E3
:104798001B688B0003F1824303F52043D3F81025EF
:1047A80042F00102C3F8102525B10123194A8B40B4
:1047B800C2F8043303B0F0BD55B91349134840F2A9
:1047C800EE3201F05CFE40F2EE310F4801F050FE8F
:1047D80036F81730C3F38203042B11D0052B11D000
:1047E80001A80194FFF7ECFD019B0169D94001F094
:1047F80001010231204603B0BDE8F04002F08DB857
:104808000321F7E70221F5E794770001B06E000174
:104818003800002100A0004108B50246FFF736FD28
:10482800C8B11046FFF748FDA8B90E4B083233F857
:10483800123001225B0B9A400B499B0003F1824323
:10484800C1F8082303F52043D3F8102522F003020A
:10485800C3F8102508BD0021BDE80840104602F045
:104868005CB800BF3800002100A00041104B00F1E7
:10487800080233F8123013B5DB07044616D5FFF7E4
:10488800CBFF2046FFF77EFD01A80194FFF798FDB6
:10489800019B00EB8300D0F8003203F0E04343F0C3
:1048A8000203C0F80032034802B010BD0248FBE71B
:1048B800380000210000AD0B0400AD0B2DE9F04FCE
:1048C800002501222C46634B6348644989B01E6861
:1048D80036B1D0F8046316421EBF1C601E6815432B
:1048E80004338B424FEA4202F1D15B4BD3F87C315F
:1048F800002B00F092805A4F5A4E3B6A06933B6257
:10490800336A079333624FF000080DF1180A4FEA33
:104918004813029350E093FAA3F3B3FA83F3029A8D
:1049280003EB020B504B0BF1080233F812204FEA4D
:10493800DB04C2F382030193994601230BF00700BD
:1049480003FA00FC1AF80400910820EA0C000AF89F
:10495800040005A80391CDF814B0FFF731FD059CBC
:104968000399803450F824404B07C4F301442DD5F3
:1049780049465846FFF7AAFC05A8CDF814B0FFF73A
:104988001FFD059AE4B2803250F82220C2F301429A
:10499800944207D10021584601F0BFFF21465846EE
:1049A80001F0BBFF05A8CDF814B0FFF709FD0122FF
:1049B800059B02FA03F303625AF82830002BAAD1A8
:1049C800B8F1000F1BD14FF00108A0E7022C0CBF73
:1049D80003210221584601F0A0FF019B032B04D0BC
:1049E800022C07D1B9F1010FDCD149465846FFF72F
:1049F8006DFCD7E7032CD5D1B9F1020FF4E7164ABD
:104A0800C2F87C31D2F87C313A6A06923A62336A4B
:104A18000793336213437FF476AF012415B909B0C5
:104A2800BDE8F08F95FAA5F3B3FA83F304FA03F21D
:104A38009B0003F1824303F52043D3F81005D3F814
:104A48001015C0F30520C1F3014125EA0205FFF75F
:104A58003DFCE3E700A1004100A0004120A1004186
:104A680000058C4100088C41380000210E4B70B5C0
:104A780053F82040013053F82060A64200D870BD9A
:104A8800D4E900352846984765B1EB6830B100286D
:104A9800B8BF4042FF28A8BFFF2018705A7842F0DC
:104AA80001025A700834E8E7E46C0001F7B50446DF
:104AB8000E464FF02003EFF3118783F31288BFF3FC
:104AC8006F8F01F0EDF80022042C98BF1D4B0546AE
:104AD80094BF53F824301C4B0092452122461B48B2
:104AE80001F0DBFC3EB1F369C3F308031BB14521B8
:104AF800174801F0D2FC35B1284601F032FF0346D1
:104B080008B1027802B9134B2A464521124801F030
:104B1800C4FC31462046FEF771FA042C08D10F492F
:104B28000F488F2201F0ABFC8F210C4801F0A0FC4C
:104B380087F31188BFF36F8F284603B0BDE8F040B4
:104B4800FDF71CB8FC6C0001D2770001E877000182
:104B580015780001E07700013B78000158780001E2
:104B6800B06E0001012208B5094B02201A70FFF748
:104B78007DFF01F097FB0320FFF778FF00F00AF9AB
:104B8800FBF7D2FC034A137B23F00103137308BD20
:104B98000C0700219801002108B50348034A0021A9
:104BA800121A01F0D4FE08BDF800002110070021F8
:104BB8000023012270B586B0CDE904230F220193AA
:104BC800CDE9023218230F4D0F4E03FB00550F4954
:104BD80006EBC016044601EB00214FF48072304604
:104BE8000B4B009500F082F8737B0A482C75013452
:104BF80023F0040300EBC4247373EE606C6006B00A
:104C080070BD00BFE403002118010021100B002132
:104C1800DD4E0001100C002180B52D4BA6B003F528
:104C2800006282F3088883F30A880024E023294D70
:104C3800294E85F82230EC772C766C76AC7685F8A0
:104C480020406B6A254F43F4E0236B6285F82340CC
:104C5800FCF7FAFEFCF7A0FB4FF0FF33AB62EB6208
:104C6800FDF760F9FCF7A0FF40F20113ADF824301E
:104C780006ABB360CDE91F44229401F05DFE2046E7
:104C8800FFF7F4FE0120164DFFF7F0FE00F0BEFE20
:104C9800144BB5610593012313494FF48062CDE9A4
:104CA800034328463B46CDE90144009400F01EF832
:104CB80006466A7B284622F004026A7300F02AFC42
:104CC8002046FFF775FF3A4631462846FCF794FC24
:104CD800100C002100ED00E0E40300216D4B000101
:104CE80098010021C4780001100700212DE9F04344
:104CF80085B0DDF83C900446B9F10F0F0F46154614
:104D080098462ED11F4B98452FD104F15803C4E97A
:104D18001633109B00262373042363730E9BE81D30
:104D280002930D9B20F0070001930C9B3D18C4E9EA
:104D3800197000932A46434639462046C4E9066658
:104D4800A66084F80E90E673E666FCF739FC0E4B15
:104D580066659B6803B11B6F2846236705B0BDE8ED
:104D6800F08309F110031E2BCFD940F2FF12074937
:104D7800074801F084FB40F2FF11044801F078FB7A
:104D8800C3E700BFDD4E0001E4030021CC78000139
:104D9800B06E00012DE9F043374C384D384F87B0DD
:104DA800AC4226460AD93946364840F2D52201F0A7
:104DB80066FB40F2D521384601F05AFBAE4204F1B9
:104DC80030041BD300F0E6F92B4C2D4EDFF8B480ED
:104DD800DFF8B490AC420AD9314640464FF43D72F0
:104DE80001F04DFB4FF43D71304601F041FBAC4200
:104DF80020D307B0BDE8F04300F06EBD54F8043C82
:104E080054E90C01059354F8103C049354F8143CED
:104E1800039354F8183C029354F81C3C019354F83B
:104E2800203C009354E90A23FFF760FF54F8303C14
:104E38005E65B5E7636A5A1C0FD04FF4004240F232
:104E4800E730002123EAE373C3FB020151EAC333CD
:104E5800276804D1384600F093FB3034BAE74FF4A2
:104E68007A720023FBF724F902460B4607F1180073
:104E7800494601F013F8F0E7F4000021F40000219E
:104E8800CC780001B06E00010D560001006838B101
:104E9800044B00F003001B7DC01A18BF01207047A7
:104EA80001207047E4030021054903468A68087D0C
:104EB800196802430020914204BF1860012070471E
:104EC800E4030021024A117D93680B430360704795
:104ED800E403002108B50D4B9B6893F90E30002BB5
:104EE80008DA0B490B48272201F0C9FA272108489C
:104EF80001F0BEFA4FF02002EFF3118382F312881B
:104F0800BFF36F8FFCF74EFAF4E700BFE40300210C
:104F1800EF780001B06E000138B504464FF0200369
:104F2800EFF3118583F31288BFF36F8F1248FFF7F1
:104F3800ADFF40B9114912488E2201F0A0FA8E2126
:104F48000E4801F095FA0C48FFF7BCFF204600F028
:104F58001FFD48B10022826700F0DCFA2946BDE84F
:104F68003840054800F0E0B8D4E902329A4218BF48
:104F78000133A360F2E700BF08040021DF6F0001DE
:104F8800B06E0001F7B5044616461D46EFF30583DB
:104F98005BB152EA050308D02B492C48792201F06D
:104FA8006EFA7921284801F063FA4FF02003EFF3F5
:104FB800118783F31288BFF36F8F2548FFF766FFC9
:104FC80040B9244921488E2201F059FA8E212148FE
:104FD80001F04EFA1E48FFF775FFA368ABB1013B1D
:104FE8001B48A360FFF760FF40B91A491748B92268
:104FF80001F045FAB921174801F03AFA87F3118808
:10500800BFF36F8F002003B0F0BD56EA050313D13C
:105018000F48FFF749FF40B90E490C48B92201F083
:105028002EFAB9210B4801F023FA87F31188BFF350
:105038006F8F6FF00F00E6E722463946CDE900652D
:10504800034800F0CBFBDEE710790001B06E0001E9
:1050580008040021DF6F000138B5074D2C6854B1F2
:10506800FDF786FF054B04441C6128680021BDE854
:10507800384000F0FDBF38BD18040021E4030021CA
:10508800F8B504460D464FF02003EFF3118783F37C
:105098001288BFF36F8F1E48FFF7F8FE40B91D490D
:1050A8001D488E2201F0EBF98E211A4801F0E0F933
:1050B8001748FFF707FF00214FF4004C40F2E73094
:1050C800164E002331614FF47A72E4FB0C01FAF7B3
:1050D800EFFF002C124B17DC1860124BB0681D60F4
:1050E800FFF7BAFF0A48FFF7DFFE40B909490A4847
:1050F800B92201F0C4F9B921064801F0B9F987F3DA
:105108001188BFF36F8FF8BD0228B8BF0220E3E70C
:1051180010040021DF6F0001B06E0001E4030021DC
:10512800180400211404002110B503460C46C1B927
:10513800EFF30582AAB9144A91699268914210D096
:10514800FFF7B2FE40B911491148D02201F097F992
:10515800D0210E4801F08CF9BDE810400020FCF782
:10516800D9B91846FFF7A0FE40B908490848B9223E
:1051780001F085F9B921054801F07AF984F311881D
:10518800BFF36F8F10BD00BFE4030021DF6F000184
:10519800B06E000138B54FF02003EFF3118583F3AB
:1051A8001288BFF36F8F2048FFF770FE40B91F4980
:1051B8001F488E2201F063F98E211C4801F058F92E
:1051C8001948FFF77FFEEFF3058343B119491848E3
:1051D800FD2201F054F9FD21164801F049F9164C59
:1051E800A368DB7B012B08D112491148FE2201F08C
:1051F80046F9FE210F4801F03BF9A268D37B013B39
:10520800D3730948FFF750FE40B908490848B92246
:1052180001F035F9B921054801F02AF985F311881B
:10522800BFF36F8F38BD00BF10040021DF6F00018E
:10523800B06E000130790001E40300210B4B10B57A
:1052480099420C460AD10A490A4840F23D4201F007
:1052580016F940F23D41064801F00AF9D4E9003256
:1052680013605A600023C4E9003310BD18010021FF
:105278005B790001B06E0001836810B5044653B92C
:105288000A490B4840F2B92201F0F9F840F2B92175
:10529800064801F0EDF82146A068FFF7CFFF637BD1
:1052A80023F0020363730023A36010BD5B79000140
:1052B800B06E000138B50246124801F06AFB124D83
:1052C800044600B9EC68AAB9AB6843B90F4910485D
:1052D800892201F0D4F889210C4801F0C9F8AB689B
:1052E8005A7BD20606D1A26922B9DA897F2A01D966
:1052F800AB6138BDAB68A34202D02046FFF7ACFED5
:10530800AC61F6E700040021E40300215B790001A9
:10531800B06E000170B590F90D200446002A437B59
:1053280006DA03F07F03014643731D48FFF786FF43
:10533800637B63F07F0363731A4B9C4208D11A495D
:105348001A48BA2201F09BF8BA21174801F090F8E0
:10535800174A02F11C05D2E90730AB421BD0D3B182
:1053680094F90E6093F90E108E420FD0891B002914
:105378000CDD5968C4E900310C605C609068031B5F
:1053880058425841BDE87040FFF794BF834202D0AD
:105398001B68002BE6D1C4E9005004601462EDE7F5
:1053A80000040021180100215B790001B06E0001A2
:1053B800E403002170B505464FF02003EFF3118692
:1053C80083F31288BFF36F8F2548FFF75FFD40B95D
:1053D800244925488E2201F052F88E21214801F0F7
:1053E80047F81F48FFF76EFD204B214A9C6811685B
:1053F8008C4214D12046FFF72FFE1948FFF754FDC1
:1054080040B918491848B92201F039F8B9211548A6
:1054180001F02EF886F31188BFF36F8F70BD00215D
:105428001160144A1268C2B1E2897F2A15D8627BDA
:10543800D20612D1104A94F90E10126891420CDB70
:105448000E4A944209D01A69AA4203DC2046FFF7A3
:1054580061FFCFE7521B1A61CFE70022FBE700BFCD
:1054680010040021DF6F0001B06E0001E403002189
:105478000C04002118040021140400211801002143
:1054880070B590F90D200446002A437B38DBDA0614
:1054980036D18269002A33D163F07F034373194BF5
:1054A800984208D118491948BA2200F0E8FFBA21F1
:1054B800154800F0DDFF164A02F11C05D2E9073055
:1054C800AB4218D0BBB194F90E6093F90E108E421E
:1054D8000CD0891B002909DD5A68C4E90032146020
:1054E8005C600020BDE87040FFF7E4BE984202D03F
:1054F8001B68002BE9D1C4E9005004601462F0E78E
:1055080070BD00BF180100215B790001B06E000179
:10551800E403002138B504464FF02003EFF311856A
:1055280083F31288BFF36F8F1248FFF7AFFC40B9BF
:10553800114912488E2200F0A2FF8E210E4800F079
:1055480097FF0C48FFF7BEFC2046FFF799FF094874
:10555800FFF7AAFC40B908490848B92200F08FFFB4
:10556800B921054800F084FF85F31188BFF36F8FD8
:1055780038BD00BF10040021DF6F0001B06E0001CC
:1055880038B504464FF02003EFF3118583F31288F2
:10559800BFF36F8F1848FFF779FC40B917491848CF
:1055A8008E2200F06CFF8E21144800F061FF124833
:1055B800FFF788FC637B5A0711D40F48FFF774FC88
:1055C80040B90E490E48B92200F059FFB9210B48DD
:1055D80000F04EFF85F31188BFF36F8F38BD23F0BD
:1055E800040320466373FFF74BFF2946BDE83840A4
:1055F8000148FFF799BD00BF10040021DF6F0001CB
:10560800B06E000170B504464FF02003EFF3118629
:1056180083F31288BFF36F8F1B48FFF737FC40B93D
:105628001A491B488E2200F02AFF8E21174800F0E5
:105638001FFF1548FFF746FC14F80B3C13F0280F22
:1056480010D154F8103CA4F1180513B12846FFF7FF
:1056580013FE14F80B3C284623F0140304F80B3C03
:10566800FFF70EFF0848FFF71FFC40B90749084835
:10567800B92200F004FFB921044800F0F9FE86F3CE
:105688001188BFF36F8F70BD10040021DF6F000118
:10569800B06E000110B590F90D200446002A437B36
:1056A80006DA03F07F03014643730648FFF7C6FD99
:1056B800054B9868031B58425841BDE81040FFF756
:1056C800F9BD00BF00040021E403002138B50446F9
:1056D8000D46FFF7DFFF637B43F002036373F5B109
:1056E800154BA5609C4208D114491548BA2200F010
:1056F800C6FEBA21114800F0BBFE2B689D4215D0AA
:10570800A3B194F90E1093F90E20914208D0521AC1
:10571800002A05DD5A68C4E9003214605C6038BDAF
:105728006A68934202D01B68002BECD16B68C4E90D
:1057380000531C606C60F2E7180100215B790001DE
:10574800B06E00012DE9F0410446884616461D4614
:105758004FF02003EFF3118783F31288BFF36F8FA5
:105768001A48FFF793FB40B919491A488E2200F0EE
:1057780086FE8E21164800F07BFE1448FFF7A2FB38
:1057880020464146FFF7A2FF1048FFF78DFB40B9BE
:105798000F491048B92200F072FEB9210C4800F0F8
:1057A80067FE87F31188BFF36F8FB5F1FF3F08BF1E
:1057B800B6F1FF3F08D032462B4604F118000649DF
:1057C800BDE8F04100F06ABBBDE8F081100400219B
:1057D800DF6F0001B06E00010D56000138B50546B7
:1057E8000D4B0C4698680D4B11461860DDE90423F3
:1057F800FFF7A8FF2846FFF757FB40B908490948B3
:10580800D02200F03CFED021054800F031FE2046B1
:10581800BDE83840FBF77EBEE40300210C040021FC
:10582800DF6F0001B06E000170B50446183000F05B
:10583800E3FB4FF02003EFF3118683F31288BFF3E5
:105848006F8F2048FFF722FB40B91F491F488E225F
:1058580000F015FE8E211C4800F00AFE1948FFF7DB
:1058680031FB94F90D20637B002A06DA03F07F03ED
:10587800214617486373FFF7E1FC164D637BA86860
:1058880043F010036373031B58425841FFF712FD9E
:105898000C48FFF709FB40B90B490C48B92200F046
:1058A800EEFDB921084800F0E3FD86F31188BFF347
:1058B8006F8FAB68A34203D1BDE8704001F05FB8B9
:1058C80070BD00BF10040021DF6F0001B06E000141
:1058D80000040021E403002138B54FF02003EFF362
:1058E800118583F31288BFF36F8F2448FFF7CEFA30
:1058F80040B9234923488E2200F0C1FD8E2120485B
:1059080000F0B6FD204C1D48FFF7DCFAA368DB7BEE
:1059180053B91E491B4840F2BB3200F0B0FD40F2BB
:10592800BB311A4800F0A4FDEFF3058353B11749C2
:1059380014484FF46F7200F0A2FD4FF46F711348D2
:1059480000F096FDA2680020D37B0133D373FFF7E4
:10595800B1FC0A48FFF7A8FA40B909490948B92231
:1059680000F08DFDB921064800F082FD85F311880D
:10597800BFF36F8FBDE8384001F001B81004002173
:10598800DF6F0001B06E0001E40300215B790001C4
:1059980038B504464FF02003EFF3118583F31288DE
:1059A800BFF36F8F1648FFF771FA40B915491648CB
:1059B8008E2200F064FD8E21124800F059FD104837
:1059C800FFF780FA204600F0E4FF044628B1FFF70D
:1059D80053FC04F1180000F00FFB0948FFF764FAC4
:1059E80040B908490848B92200F049FDB9210548DD
:1059F80000F03EFD85F31188BFF36F8F204638BD58
:105A080010040021DF6F0001B06E00010021044B7B
:105A1800084603F11C02C3E90722FFF731BB00BFA8
:105A2800E4030021F8B5EFF3058353B13849394849
:105A380040F2325200F023FD40F23251344800F077
:105A480017FD4FF02003EFF3118683F31288BFF39D
:105A58006F8F3148FFF71AFA40B930492D488E2226
:105A680000F00DFD8E212D4800F002FD2C4D2A4836
:105A7800FFF728FAA96805F11C004B7B03F07F03A8
:105A88004B73FFF7DBFBAC68637B63F07F036373E7
:105A9800244B9C4208D11E491E48BA2200F0EFFC54
:105AA800BA211B4800F0E4FCD5E907311E488342BF
:105AB80028D03BB394F90E7093F90E2097421CD06E
:105AC800D21B002A19DD5A68C4E9003214605C60F0
